{
  "contractName": "CharityOrg",
  "abi": [
    {
      "inputs": [
        {
          "name": "_n",
          "type": "string"
        }
      ],
      "payable": false,
      "stateMutability": "nonpayable",
      "type": "constructor",
      "signature": "constructor"
    },
    {
      "payable": true,
      "stateMutability": "payable",
      "type": "fallback"
    },
    {
      "constant": false,
      "inputs": [
        {
          "name": "_addr",
          "type": "address"
        },
        {
          "name": "_fname",
          "type": "string"
        },
        {
          "name": "_lname",
          "type": "string"
        }
      ],
      "name": "addMember",
      "outputs": [],
      "payable": false,
      "stateMutability": "nonpayable",
      "type": "function",
      "signature": "0x76c19546"
    },
    {
      "constant": false,
      "inputs": [
        {
          "name": "_addr",
          "type": "address"
        }
      ],
      "name": "removeMember",
      "outputs": [],
      "payable": false,
      "stateMutability": "nonpayable",
      "type": "function",
      "signature": "0x0b1ca49a"
    },
    {
      "constant": false,
      "inputs": [],
      "name": "startCandidacy",
      "outputs": [],
      "payable": false,
      "stateMutability": "nonpayable",
      "type": "function",
      "signature": "0x926e5dd9"
    },
    {
      "constant": false,
      "inputs": [],
      "name": "endCandidacy",
      "outputs": [],
      "payable": false,
      "stateMutability": "nonpayable",
      "type": "function",
      "signature": "0x9185a228"
    },
    {
      "constant": false,
      "inputs": [
        {
          "name": "_addr",
          "type": "address"
        }
      ],
      "name": "castVote",
      "outputs": [],
      "payable": false,
      "stateMutability": "nonpayable",
      "type": "function",
      "signature": "0x53358fc4"
    },
    {
      "constant": false,
      "inputs": [],
      "name": "revokeVote",
      "outputs": [],
      "payable": false,
      "stateMutability": "nonpayable",
      "type": "function",
      "signature": "0x43c14b22"
    },
    {
      "constant": false,
      "inputs": [],
      "name": "quitOrganisation",
      "outputs": [],
      "payable": false,
      "stateMutability": "nonpayable",
      "type": "function",
      "signature": "0x631b59f9"
    },
    {
      "constant": false,
      "inputs": [],
      "name": "calculateElectionResults",
      "outputs": [],
      "payable": false,
      "stateMutability": "nonpayable",
      "type": "function",
      "signature": "0x3b1d3e7d"
    },
    {
      "constant": true,
      "inputs": [
        {
          "name": "_mem",
          "type": "address"
        }
      ],
      "name": "getMember",
      "outputs": [
        {
          "name": "_addr",
          "type": "address"
        },
        {
          "name": "_fname",
          "type": "string"
        },
        {
          "name": "_lname",
          "type": "string"
        },
        {
          "name": "_v",
          "type": "address"
        },
        {
          "name": "_ismem",
          "type": "bool"
        },
        {
          "name": "_can",
          "type": "uint256"
        },
        {
          "name": "_totv",
          "type": "uint256"
        }
      ],
      "payable": false,
      "stateMutability": "view",
      "type": "function",
      "signature": "0x2ada2596"
    },
    {
      "constant": true,
      "inputs": [],
      "name": "getCandidates",
      "outputs": [
        {
          "name": "",
          "type": "address[]"
        }
      ],
      "payable": false,
      "stateMutability": "view",
      "type": "function",
      "signature": "0x06a49fce"
    },
    {
      "constant": true,
      "inputs": [],
      "name": "getOrganisationDetails",
      "outputs": [
        {
          "name": "_pres",
          "type": "address"
        },
        {
          "name": "_name",
          "type": "string"
        }
      ],
      "payable": false,
      "stateMutability": "view",
      "type": "function",
      "signature": "0xb1743b8e"
    },
    {
      "constant": false,
      "inputs": [
        {
          "name": "charity",
          "type": "address"
        },
        {
          "name": "value",
          "type": "uint256"
        }
      ],
      "name": "sendEtherToCharity",
      "outputs": [],
      "payable": false,
      "stateMutability": "nonpayable",
      "type": "function",
      "signature": "0x1ae00917"
    },
    {
      "constant": false,
      "inputs": [],
      "name": "kill",
      "outputs": [],
      "payable": false,
      "stateMutability": "nonpayable",
      "type": "function",
      "signature": "0x41c0e1b5"
    }
  ],
  "bytecode": "0x60806040523480156200001157600080fd5b5060405162002b2638038062002b26833981018060405260208110156200003757600080fd5b8101908080516401000000008111156200005057600080fd5b828101905060208101848111156200006757600080fd5b81518560018202830111640100000000821117156200008557600080fd5b5050929190505050336000806101000a81548173ffffffffffffffffffffffffffffffffffffffff021916908373ffffffffffffffffffffffffffffffffffffffff1602179055508060019080519060200190620000e5929190620000ed565b50506200019c565b828054600181600116156101000203166002900490600052602060002090601f016020900481019282601f106200013057805160ff191683800117855562000161565b8280016001018555821562000161579182015b828111156200016057825182559160200191906001019062000143565b5b50905062000170919062000174565b5090565b6200019991905b80821115620001955760008160009055506001016200017b565b5090565b90565b61297a80620001ac6000396000f3fe6080604052600436106100c5576000357c0100000000000000000000000000000000000000000000000000000000900463ffffffff16806306a49fce146100c75780630b1ca49a146101335780631ae00917146101845780632ada2596146101df5780633b1d3e7d1461039457806341c0e1b5146103ab57806343c14b22146103c257806353358fc4146103d9578063631b59f91461042a57806376c19546146104415780639185a228146105c0578063926e5dd9146105d7578063b1743b8e146105ee575b005b3480156100d357600080fd5b506100dc6106b1565b6040518080602001828103825283818151815260200191508051906020019060200280838360005b8381101561011f578082015181840152602081019050610104565b505050509050019250505060405180910390f35b34801561013f57600080fd5b506101826004803603602081101561015657600080fd5b81019080803573ffffffffffffffffffffffffffffffffffffffff16906020019092919050505061073f565b005b34801561019057600080fd5b506101dd600480360360408110156101a757600080fd5b81019080803573ffffffffffffffffffffffffffffffffffffffff16906020019092919080359060200190929190505050610f03565b005b3480156101eb57600080fd5b5061022e6004803603602081101561020257600080fd5b81019080803573ffffffffffffffffffffffffffffffffffffffff169060200190929190505050610fa2565b604051808873ffffffffffffffffffffffffffffffffffffffff1673ffffffffffffffffffffffffffffffffffffffff16815260200180602001806020018773ffffffffffffffffffffffffffffffffffffffff1673ffffffffffffffffffffffffffffffffffffffff16815260200186151515158152602001858152602001848152602001838103835289818151815260200191508051906020019080838360005b838110156102ec5780820151818401526020810190506102d1565b50505050905090810190601f1680156103195780820380516001836020036101000a031916815260200191505b50838103825288818151815260200191508051906020019080838360005b83811015610352578082015181840152602081019050610337565b50505050905090810190601f16801561037f5780820380516001836020036101000a031916815260200191505b50995050505050505050505060405180910390f35b3480156103a057600080fd5b506103a961125e565b005b3480156103b757600080fd5b506103c061167c565b005b3480156103ce57600080fd5b506103d76116f0565b005b3480156103e557600080fd5b50610428600480360360208110156103fc57600080fd5b81019080803573ffffffffffffffffffffffffffffffffffffffff1690602001909291905050506119b5565b005b34801561043657600080fd5b5061043f611be9565b005b34801561044d57600080fd5b506105be6004803603606081101561046457600080fd5b81019080803573ffffffffffffffffffffffffffffffffffffffff169060200190929190803590602001906401000000008111156104a157600080fd5b8201836020820111156104b357600080fd5b803590602001918460018302840111640100000000831117156104d557600080fd5b91908080601f016020809104026020016040519081016040528093929190818152602001838380828437600081840152601f19601f8201169050808301925050505050505091929192908035906020019064010000000081111561053857600080fd5b82018360208201111561054a57600080fd5b8035906020019184600183028401116401000000008311171561056c57600080fd5b91908080601f016020809104026020016040519081016040528093929190818152602001838380828437600081840152601f19601f820116905080830192505050505050509192919290505050611f5c565b005b3480156105cc57600080fd5b506105d56121c1565b005b3480156105e357600080fd5b506105ec612535565b005b3480156105fa57600080fd5b5061060361269c565b604051808373ffffffffffffffffffffffffffffffffffffffff1673ffffffffffffffffffffffffffffffffffffffff16815260200180602001828103825283818151815260200191508051906020019080838360005b8381101561067557808201518184015260208101905061065a565b50505050905090810190601f1680156106a25780820380516001836020036101000a031916815260200191505b50935050505060405180910390f35b6060600280548060200260200160405190810160405280929190818152602001828054801561073557602002820191906000526020600020905b8160009054906101000a900473ffffffffffffffffffffffffffffffffffffffff1673ffffffffffffffffffffffffffffffffffffffff16815260200190600101908083116106eb575b5050505050905090565b60011515600360008373ffffffffffffffffffffffffffffffffffffffff1673ffffffffffffffffffffffffffffffffffffffff16815260200190815260200160002060030160149054906101000a900460ff1615151415156107a157600080fd5b6000809054906101000a900473ffffffffffffffffffffffffffffffffffffffff1673ffffffffffffffffffffffffffffffffffffffff168173ffffffffffffffffffffffffffffffffffffffff16141515156107fd57600080fd5b600360003373ffffffffffffffffffffffffffffffffffffffff1673ffffffffffffffffffffffffffffffffffffffff16815260200190815260200160002060020160009054906101000a900473ffffffffffffffffffffffffffffffffffffffff1673ffffffffffffffffffffffffffffffffffffffff163373ffffffffffffffffffffffffffffffffffffffff1614806108e557506000809054906101000a900473ffffffffffffffffffffffffffffffffffffffff1673ffffffffffffffffffffffffffffffffffffffff163373ffffffffffffffffffffffffffffffffffffffff16145b15156108f057600080fd5b6000600360008373ffffffffffffffffffffffffffffffffffffffff1673ffffffffffffffffffffffffffffffffffffffff16815260200190815260200160002060040154141515610c4d576000819050600160028054905014806109c157508073ffffffffffffffffffffffffffffffffffffffff16600260016002805490500381548110151561097e57fe5b9060005260206000200160009054906101000a900473ffffffffffffffffffffffffffffffffffffffff1673ffffffffffffffffffffffffffffffffffffffff16145b15610a72576001600280549050036002816109dc91906127a8565b506000600360008373ffffffffffffffffffffffffffffffffffffffff1673ffffffffffffffffffffffffffffffffffffffff168152602001908152602001600020600401819055506000600360008373ffffffffffffffffffffffffffffffffffffffff1673ffffffffffffffffffffffffffffffffffffffff16815260200190815260200160002060050181905550610c4b565b60006002600160028054905003815481101515610a8b57fe5b9060005260206000200160009054906101000a900473ffffffffffffffffffffffffffffffffffffffff1690506000600360008473ffffffffffffffffffffffffffffffffffffffff1673ffffffffffffffffffffffffffffffffffffffff16815260200190815260200160002060040154905081600260018303815481101515610b1257fe5b9060005260206000200160006101000a81548173ffffffffffffffffffffffffffffffffffffffff021916908373ffffffffffffffffffffffffffffffffffffffff16021790555080600360008473ffffffffffffffffffffffffffffffffffffffff1673ffffffffffffffffffffffffffffffffffffffff168152602001908152602001600020600401819055506000600360008573ffffffffffffffffffffffffffffffffffffffff1673ffffffffffffffffffffffffffffffffffffffff168152602001908152602001600020600401819055506000600360008573ffffffffffffffffffffffffffffffffffffffff1673ffffffffffffffffffffffffffffffffffffffff16815260200190815260200160002060050181905550600160028054905003600281610c4791906127a8565b5050505b505b6000600360008373ffffffffffffffffffffffffffffffffffffffff1673ffffffffffffffffffffffffffffffffffffffff16815260200190815260200160002060030160009054906101000a900473ffffffffffffffffffffffffffffffffffffffff169050600073ffffffffffffffffffffffffffffffffffffffff168173ffffffffffffffffffffffffffffffffffffffff1614158015610d44575060011515600360008373ffffffffffffffffffffffffffffffffffffffff1673ffffffffffffffffffffffffffffffffffffffff16815260200190815260200160002060030160149054906101000a900460ff161515145b8015610d9257506000600360008373ffffffffffffffffffffffffffffffffffffffff1673ffffffffffffffffffffffffffffffffffffffff16815260200190815260200160002060050154115b15610e2b57610de4600360008373ffffffffffffffffffffffffffffffffffffffff1673ffffffffffffffffffffffffffffffffffffffff168152602001908152602001600020600501546001612765565b600360008373ffffffffffffffffffffffffffffffffffffffff1673ffffffffffffffffffffffffffffffffffffffff168152602001908152602001600020600501819055505b600360008373ffffffffffffffffffffffffffffffffffffffff1673ffffffffffffffffffffffffffffffffffffffff16815260200190815260200160002060008082016000610e7b91906127d4565b600182016000610e8b91906127d4565b6002820160006101000a81549073ffffffffffffffffffffffffffffffffffffffff02191690556003820160006101000a81549073ffffffffffffffffffffffffffffffffffffffff02191690556003820160146101000a81549060ff02191690556004820160009055600582016000905550505050565b6000809054906101000a900473ffffffffffffffffffffffffffffffffffffffff1673ffffffffffffffffffffffffffffffffffffffff163373ffffffffffffffffffffffffffffffffffffffff16141515610f5e57600080fd5b8173ffffffffffffffffffffffffffffffffffffffff166108fc829081150290604051600060405180830381858888f193505050501515610f9e57600080fd5b5050565b6000606080600080600080610fb561281c565b600360008a73ffffffffffffffffffffffffffffffffffffffff1673ffffffffffffffffffffffffffffffffffffffff16815260200190815260200160002060e06040519081016040529081600082018054600181600116156101000203166002900480601f0160208091040260200160405190810160405280929190818152602001828054600181600116156101000203166002900480156110995780601f1061106e57610100808354040283529160200191611099565b820191906000526020600020905b81548152906001019060200180831161107c57829003601f168201915b50505050508152602001600182018054600181600116156101000203166002900480601f01602080910402602001604051908101604052809291908181526020018280546001816001161561010002031660029004801561113b5780601f106111105761010080835404028352916020019161113b565b820191906000526020600020905b81548152906001019060200180831161111e57829003601f168201915b505050505081526020016002820160009054906101000a900473ffffffffffffffffffffffffffffffffffffffff1673ffffffffffffffffffffffffffffffffffffffff1673ffffffffffffffffffffffffffffffffffffffff1681526020016003820160009054906101000a900473ffffffffffffffffffffffffffffffffffffffff1673ffffffffffffffffffffffffffffffffffffffff1673ffffffffffffffffffffffffffffffffffffffff1681526020016003820160149054906101000a900460ff1615151515815260200160048201548152602001600582015481525050905080600001519650806020015195508060400151975080606001519450806080015193508060a0015192508060c00151915050919395979092949650565b6000809054906101000a900473ffffffffffffffffffffffffffffffffffffffff1673ffffffffffffffffffffffffffffffffffffffff163373ffffffffffffffffffffffffffffffffffffffff161415156112b957600080fd5b60006002805490501115156112cd57600080fd5b6000809050600080905060008090505b6002805490508110156115995781600360006002848154811015156112fe57fe5b9060005260206000200160009054906101000a900473ffffffffffffffffffffffffffffffffffffffff1673ffffffffffffffffffffffffffffffffffffffff1673ffffffffffffffffffffffffffffffffffffffff16815260200190815260200160002060050154111561148a576003600060028381548110151561138057fe5b9060005260206000200160009054906101000a900473ffffffffffffffffffffffffffffffffffffffff1673ffffffffffffffffffffffffffffffffffffffff1673ffffffffffffffffffffffffffffffffffffffff16815260200190815260200160002060020160009054906101000a900473ffffffffffffffffffffffffffffffffffffffff1692506003600060028381548110151561141e57fe5b9060005260206000200160009054906101000a900473ffffffffffffffffffffffffffffffffffffffff1673ffffffffffffffffffffffffffffffffffffffff1673ffffffffffffffffffffffffffffffffffffffff1681526020019081526020016000206005015491505b60006003600060028481548110151561149f57fe5b9060005260206000200160009054906101000a900473ffffffffffffffffffffffffffffffffffffffff1673ffffffffffffffffffffffffffffffffffffffff1673ffffffffffffffffffffffffffffffffffffffff1681526020019081526020016000206004018190555060006003600060028481548110151561152057fe5b9060005260206000200160009054906101000a900473ffffffffffffffffffffffffffffffffffffffff1673ffffffffffffffffffffffffffffffffffffffff1673ffffffffffffffffffffffffffffffffffffffff1681526020019081526020016000206005018190555080806001019150506112dd565b506000809054906101000a900473ffffffffffffffffffffffffffffffffffffffff1673ffffffffffffffffffffffffffffffffffffffff168273ffffffffffffffffffffffffffffffffffffffff16141580156116245750600073ffffffffffffffffffffffffffffffffffffffff168273ffffffffffffffffffffffffffffffffffffffff1614155b1561166a57816000806101000a81548173ffffffffffffffffffffffffffffffffffffffff021916908373ffffffffffffffffffffffffffffffffffffffff1602179055505b600260006116789190612888565b5050565b6000809054906101000a900473ffffffffffffffffffffffffffffffffffffffff1673ffffffffffffffffffffffffffffffffffffffff163373ffffffffffffffffffffffffffffffffffffffff161415156116d757600080fd5b3373ffffffffffffffffffffffffffffffffffffffff16ff5b60011515600360003373ffffffffffffffffffffffffffffffffffffffff1673ffffffffffffffffffffffffffffffffffffffff16815260200190815260200160002060030160149054906101000a900460ff16151514151561175257600080fd5b6000600360003373ffffffffffffffffffffffffffffffffffffffff1673ffffffffffffffffffffffffffffffffffffffff16815260200190815260200160002060030160009054906101000a900473ffffffffffffffffffffffffffffffffffffffff169050600073ffffffffffffffffffffffffffffffffffffffff168173ffffffffffffffffffffffffffffffffffffffff1614158015611849575060011515600360008373ffffffffffffffffffffffffffffffffffffffff1673ffffffffffffffffffffffffffffffffffffffff16815260200190815260200160002060030160149054906101000a900460ff161515145b801561189757506000600360008373ffffffffffffffffffffffffffffffffffffffff1673ffffffffffffffffffffffffffffffffffffffff16815260200190815260200160002060050154115b15611930576118e9600360008373ffffffffffffffffffffffffffffffffffffffff1673ffffffffffffffffffffffffffffffffffffffff168152602001908152602001600020600501546001612765565b600360008373ffffffffffffffffffffffffffffffffffffffff1673ffffffffffffffffffffffffffffffffffffffff168152602001908152602001600020600501819055505b6000600360003373ffffffffffffffffffffffffffffffffffffffff1673ffffffffffffffffffffffffffffffffffffffff16815260200190815260200160002060030160006101000a81548173ffffffffffffffffffffffffffffffffffffffff021916908373ffffffffffffffffffffffffffffffffffffffff16021790555050565b60011515600360003373ffffffffffffffffffffffffffffffffffffffff1673ffffffffffffffffffffffffffffffffffffffff16815260200190815260200160002060030160149054906101000a900460ff161515141515611a1757600080fd5b60011515600360008373ffffffffffffffffffffffffffffffffffffffff1673ffffffffffffffffffffffffffffffffffffffff16815260200190815260200160002060030160149054906101000a900460ff161515141515611a7957600080fd5b6000600360008373ffffffffffffffffffffffffffffffffffffffff1673ffffffffffffffffffffffffffffffffffffffff16815260200190815260200160002060040154111515611aca57600080fd5b611ad26116f0565b611b1f600360008373ffffffffffffffffffffffffffffffffffffffff1673ffffffffffffffffffffffffffffffffffffffff168152602001908152602001600020600501546001612787565b600360008373ffffffffffffffffffffffffffffffffffffffff1673ffffffffffffffffffffffffffffffffffffffff1681526020019081526020016000206005018190555080600360003373ffffffffffffffffffffffffffffffffffffffff1673ffffffffffffffffffffffffffffffffffffffff16815260200190815260200160002060030160006101000a81548173ffffffffffffffffffffffffffffffffffffffff021916908373ffffffffffffffffffffffffffffffffffffffff16021790555050565b60011515600360003373ffffffffffffffffffffffffffffffffffffffff1673ffffffffffffffffffffffffffffffffffffffff16815260200190815260200160002060030160149054906101000a900460ff161515141515611c4b57600080fd5b6000809054906101000a900473ffffffffffffffffffffffffffffffffffffffff1673ffffffffffffffffffffffffffffffffffffffff163373ffffffffffffffffffffffffffffffffffffffff1614151515611ca757600080fd5b6000600360003373ffffffffffffffffffffffffffffffffffffffff1673ffffffffffffffffffffffffffffffffffffffff16815260200190815260200160002060030160009054906101000a900473ffffffffffffffffffffffffffffffffffffffff169050600073ffffffffffffffffffffffffffffffffffffffff168173ffffffffffffffffffffffffffffffffffffffff1614158015611d9e575060011515600360008373ffffffffffffffffffffffffffffffffffffffff1673ffffffffffffffffffffffffffffffffffffffff16815260200190815260200160002060030160149054906101000a900460ff161515145b8015611dec57506000600360008373ffffffffffffffffffffffffffffffffffffffff1673ffffffffffffffffffffffffffffffffffffffff16815260200190815260200160002060050154115b15611e8557611e3e600360008373ffffffffffffffffffffffffffffffffffffffff1673ffffffffffffffffffffffffffffffffffffffff168152602001908152602001600020600501546001612765565b600360008373ffffffffffffffffffffffffffffffffffffffff1673ffffffffffffffffffffffffffffffffffffffff168152602001908152602001600020600501819055505b600360003373ffffffffffffffffffffffffffffffffffffffff1673ffffffffffffffffffffffffffffffffffffffff16815260200190815260200160002060008082016000611ed591906127d4565b600182016000611ee591906127d4565b6002820160006101000a81549073ffffffffffffffffffffffffffffffffffffffff02191690556003820160006101000a81549073ffffffffffffffffffffffffffffffffffffffff02191690556003820160146101000a81549060ff021916905560048201600090556005820160009055505050565b6000809054906101000a900473ffffffffffffffffffffffffffffffffffffffff1673ffffffffffffffffffffffffffffffffffffffff163373ffffffffffffffffffffffffffffffffffffffff16141515611fb757600080fd5b60001515600360008573ffffffffffffffffffffffffffffffffffffffff1673ffffffffffffffffffffffffffffffffffffffff16815260200190815260200160002060030160149054906101000a900460ff16151514151561201957600080fd5b61202161281c565b828160000181905250818160200181905250600181608001901515908115158152505083816040019073ffffffffffffffffffffffffffffffffffffffff16908173ffffffffffffffffffffffffffffffffffffffff168152505080600360008673ffffffffffffffffffffffffffffffffffffffff1673ffffffffffffffffffffffffffffffffffffffff16815260200190815260200160002060008201518160000190805190602001906120d89291906128a9565b5060208201518160010190805190602001906120f59291906128a9565b5060408201518160020160006101000a81548173ffffffffffffffffffffffffffffffffffffffff021916908373ffffffffffffffffffffffffffffffffffffffff16021790555060608201518160030160006101000a81548173ffffffffffffffffffffffffffffffffffffffff021916908373ffffffffffffffffffffffffffffffffffffffff16021790555060808201518160030160146101000a81548160ff02191690831515021790555060a0820151816004015560c0820151816005015590505050505050565b60011515600360003373ffffffffffffffffffffffffffffffffffffffff1673ffffffffffffffffffffffffffffffffffffffff16815260200190815260200160002060030160149054906101000a900460ff16151514151561222357600080fd5b6000339050600160028054905014806122a857508073ffffffffffffffffffffffffffffffffffffffff16600260016002805490500381548110151561226557fe5b9060005260206000200160009054906101000a900473ffffffffffffffffffffffffffffffffffffffff1673ffffffffffffffffffffffffffffffffffffffff16145b15612359576001600280549050036002816122c391906127a8565b506000600360008373ffffffffffffffffffffffffffffffffffffffff1673ffffffffffffffffffffffffffffffffffffffff168152602001908152602001600020600401819055506000600360008373ffffffffffffffffffffffffffffffffffffffff1673ffffffffffffffffffffffffffffffffffffffff16815260200190815260200160002060050181905550612532565b6000600260016002805490500381548110151561237257fe5b9060005260206000200160009054906101000a900473ffffffffffffffffffffffffffffffffffffffff1690506000600360008473ffffffffffffffffffffffffffffffffffffffff1673ffffffffffffffffffffffffffffffffffffffff168152602001908152602001600020600401549050816002600183038154811015156123f957fe5b9060005260206000200160006101000a81548173ffffffffffffffffffffffffffffffffffffffff021916908373ffffffffffffffffffffffffffffffffffffffff16021790555080600360008473ffffffffffffffffffffffffffffffffffffffff1673ffffffffffffffffffffffffffffffffffffffff168152602001908152602001600020600401819055506000600360008573ffffffffffffffffffffffffffffffffffffffff1673ffffffffffffffffffffffffffffffffffffffff168152602001908152602001600020600401819055506000600360008573ffffffffffffffffffffffffffffffffffffffff1673ffffffffffffffffffffffffffffffffffffffff1681526020019081526020016000206005018190555060016002805490500360028161252e91906127a8565b5050505b50565b60011515600360003373ffffffffffffffffffffffffffffffffffffffff1673ffffffffffffffffffffffffffffffffffffffff16815260200190815260200160002060030160149054906101000a900460ff16151514151561259757600080fd5b6000600360003373ffffffffffffffffffffffffffffffffffffffff1673ffffffffffffffffffffffffffffffffffffffff168152602001908152602001600020600401541415156125e857600080fd5b60023390806001815401808255809150509060018203906000526020600020016000909192909190916101000a81548173ffffffffffffffffffffffffffffffffffffffff021916908373ffffffffffffffffffffffffffffffffffffffff16021790555050600280549050600360003373ffffffffffffffffffffffffffffffffffffffff1673ffffffffffffffffffffffffffffffffffffffff16815260200190815260200160002060040181905550565b600060606000809054906101000a900473ffffffffffffffffffffffffffffffffffffffff16915060018054600181600116156101000203166002900480601f01602080910402602001604051908101604052809291908181526020018280546001816001161561010002031660029004801561275a5780601f1061272f5761010080835404028352916020019161275a565b820191906000526020600020905b81548152906001019060200180831161273d57829003601f168201915b505050505090509091565b600082821115151561277657600080fd5b600082840390508091505092915050565b600080828401905083811015151561279e57600080fd5b8091505092915050565b8154818355818111156127cf578183600052602060002091820191016127ce9190612929565b5b505050565b50805460018160011615610100020316600290046000825580601f106127fa5750612819565b601f0160209004906000526020600020908101906128189190612929565b5b50565b60e0604051908101604052806060815260200160608152602001600073ffffffffffffffffffffffffffffffffffffffff168152602001600073ffffffffffffffffffffffffffffffffffffffff16815260200160001515815260200160008152602001600081525090565b50805460008255906000526020600020908101906128a69190612929565b50565b828054600181600116156101000203166002900490600052602060002090601f016020900481019282601f106128ea57805160ff1916838001178555612918565b82800160010185558215612918579182015b828111156129175782518255916020019190600101906128fc565b5b5090506129259190612929565b5090565b61294b91905b8082111561294757600081600090555060010161292f565b5090565b9056fea165627a7a72305820abbf0b1ffc5f7a90bbc287cd608e3b0db5262fe2c9d58eff179793c77da9a6130029",
  "source": "pragma solidity ^0.5.0;\n\nimport \"./SafeMath.sol\";\n\ncontract CharityOrg{\n\n  struct Member{\n    string fname;\n    string lname;\n    address memAddress;\n    address vote;\n    bool isMember;\n    uint256 canPos; //if 0, not candidate, deincrement by 1 to get real position\n    uint256 totalVotes;\n  }\n\n\n  address president;\n  string name;\n  address[] candidates;\n  mapping(address => Member) members;\n\n\n  modifier isPresident(){\n    require(msg.sender == president);\n    _;\n  }\n\n  modifier isMember(){\n    require(members[msg.sender].isMember == true);\n    _;\n  }\n\n  constructor(string memory _n) public{\n    president = msg.sender;\n    name = _n;\n  }\n\n  function addMember(address _addr, string memory _fname, string memory _lname) public isPresident{\n    require(members[_addr].isMember == false);\n\n    //Create member object\n    Member memory m;\n    m.fname = _fname;\n    m.lname = _lname;\n    m.isMember = true;\n    m.memAddress = _addr;\n\n    members[_addr] = m;\n\n  }\n\n  function removeMember(address _addr) public {\n    require(members[_addr].isMember == true);\n    require(_addr != president);\n    require(msg.sender == members[msg.sender].memAddress || msg.sender == president);\n    if(members[_addr].canPos != 0){\n\n      address removeCan = _addr;\n\n      if(candidates.length == 1 || candidates[candidates.length-1] == removeCan){\n        candidates.length = candidates.length -1;\n        members[removeCan].canPos = 0;\n        members[removeCan].totalVotes = 0;\n      }\n      else{\n\n        address toSwap = candidates[candidates.length-1]; //get last address in candidate array\n        uint256 swapPos = members[removeCan].canPos;    //position to give to swapped candidate\n\n        candidates[swapPos-1] = toSwap;     //assign swap candidate new position in array\n        members[toSwap].canPos = swapPos;   //update member details to reflect change\n\n        members[removeCan].canPos = 0;      //set member's candiate position to default\n        members[removeCan].totalVotes = 0;  //remove cast votes for them\n\n        candidates.length = candidates.length -1;\n      }\n    }\n\n    address voteToRemove = members[_addr].vote;\n\n    if(voteToRemove != address(0) && members[voteToRemove].isMember == true && members[voteToRemove].totalVotes > 0){\n      members[voteToRemove].totalVotes = SafeMath.sub(members[voteToRemove].totalVotes, 1);\n    }\n\n    delete members[_addr];\n\n  }\n\n  function startCandidacy() public isMember{\n\n    require(members[msg.sender].canPos == 0);    //Check if member is already a candidate\n\n\n    candidates.push(msg.sender);\n    members[msg.sender].canPos = candidates.length;\n\n  }\n\n  function endCandidacy() public isMember{\n\n    address removeCan = msg.sender;\n\n    if(candidates.length == 1 || candidates[candidates.length-1] == removeCan){\n      candidates.length = candidates.length -1;\n      members[removeCan].canPos = 0;\n      members[removeCan].totalVotes = 0;\n    }\n    else{\n\n      address toSwap = candidates[candidates.length-1];   //get last address in candidate array\n      uint256 swapPos = members[removeCan].canPos;        //position to give to swapped candidate\n\n      candidates[swapPos-1] = toSwap;                     //assign swap candidate new position in array\n      members[toSwap].canPos = swapPos;                   //update member details to reflect change\n\n      members[removeCan].canPos = 0;                      //set member's candiate position to default\n      members[removeCan].totalVotes = 0;                  //remove cast votes for them\n\n      candidates.length = candidates.length -1;\n    }\n\n  }\n\n  function castVote(address _addr) public isMember{\n\n    require(members[_addr].isMember == true);\n    require(members[_addr].canPos > 0);\n\n    revokeVote();\n\n    members[_addr].totalVotes = SafeMath.add(members[_addr].totalVotes, 1);\n    members[msg.sender].vote = _addr;\n\n  }\n\n  function revokeVote() public isMember{\n\n    address voteToRemove = members[msg.sender].vote;\n\n    if(voteToRemove != address(0) && members[voteToRemove].isMember == true && members[voteToRemove].totalVotes > 0){\n      members[voteToRemove].totalVotes = SafeMath.sub(members[voteToRemove].totalVotes, 1);\n    }\n\n    members[msg.sender].vote = address(0);\n\n  }\n\n\n  function quitOrganisation() public isMember{\n\n    require(msg.sender != president);\n\n    address voteToRemove = members[msg.sender].vote;\n\n    if(voteToRemove != address(0) && members[voteToRemove].isMember == true && members[voteToRemove].totalVotes > 0){\n      members[voteToRemove].totalVotes = SafeMath.sub(members[voteToRemove].totalVotes, 1);\n    }\n\n    delete members[msg.sender];\n\n  }\n\n  function calculateElectionResults() public isPresident{\n\n    require(candidates.length > 0);\n\n    address newPresident = address(0);\n    uint256 voteLimit = 0;\n    for(uint i = 0; i < candidates.length; i++){\n      //members[candidates[i]];\n\n      if(members[candidates[i]].totalVotes > voteLimit){\n        newPresident = members[candidates[i]].memAddress;\n        voteLimit = members[candidates[i]].totalVotes;\n      }\n\n      members[candidates[i]].canPos = 0;\n      members[candidates[i]].totalVotes = 0;\n    }\n\n    if(newPresident != president && newPresident != address(0)){\n      president = newPresident;\n    }\n\n    delete candidates;\n\n  }\n\n  ///GETTERS & SETTERS ///\n  function getMember(address _mem) public view returns(address _addr, string memory _fname, string memory _lname, address _v, bool _ismem, uint256 _can, uint256 _totv){\n      Member memory m = members[_mem];\n      _fname = m.fname;\n      _lname = m.lname;\n      _addr = m.memAddress;\n      _v = m.vote;\n      _ismem = m.isMember;\n      _can = m.canPos;\n      _totv = m.totalVotes;\n  }\n\n  function getCandidates() public view returns(address[] memory){\n    return candidates;\n  }\n\n  function getOrganisationDetails() public view returns(address _pres, string memory _name){\n    _pres = president;\n    _name = name;\n  }\n\n  function sendEtherToCharity(address payable charity, uint256 value) public isPresident {\n    if(!charity.send(value)){revert();}\n\n  }\n\n  function kill() public isPresident{\n    selfdestruct(msg.sender);\n  }\n\n  function () external payable{\n\n  }\n\n}\n",
  "sourcePath": "/home/dan/Documents/ethereum/git/QMB-Blockchain/truffle/CharityOrg/contracts/CharityOrg.sol",
  "compiler": {
    "name": "solc",
    "version": "0.5.0+commit.1d4f565a.Emscripten.clang"
  },
  "schemaVersion": "3.0.1",
  "updatedAt": "2019-04-30T03:52:17.032Z",
  "devdoc": {
    "methods": {}
  },
  "userdoc": {
    "methods": {
      "getMember(address)": {
        "notice": "GETTERS & SETTERS ///"
      }
    }
  }
}