{
  "contractName": "SRC",
  "abi": [
    {
      "inputs": [],
      "payable": false,
      "stateMutability": "nonpayable",
      "type": "constructor",
      "signature": "constructor"
    },
    {
      "payable": true,
      "stateMutability": "payable",
      "type": "fallback"
    },
    {
      "constant": false,
      "inputs": [
        {
          "name": "_tit",
          "type": "string"
        },
        {
          "name": "_sch",
          "type": "uint8"
        }
      ],
      "name": "addPosition",
      "outputs": [
        {
          "name": "success",
          "type": "bool"
        }
      ],
      "payable": false,
      "stateMutability": "nonpayable",
      "type": "function",
      "signature": "0xe4a15552"
    },
    {
      "constant": false,
      "inputs": [
        {
          "name": "_tit",
          "type": "string"
        }
      ],
      "name": "removePosition",
      "outputs": [
        {
          "name": "success",
          "type": "bool"
        }
      ],
      "payable": false,
      "stateMutability": "nonpayable",
      "type": "function",
      "signature": "0x3fc6aa81"
    },
    {
      "constant": false,
      "inputs": [
        {
          "name": "_pos",
          "type": "string"
        },
        {
          "name": "_addr",
          "type": "address"
        }
      ],
      "name": "changeHolder",
      "outputs": [],
      "payable": false,
      "stateMutability": "nonpayable",
      "type": "function",
      "signature": "0x5c59238a"
    },
    {
      "constant": false,
      "inputs": [
        {
          "name": "_pos",
          "type": "string"
        },
        {
          "name": "_addr",
          "type": "address[]"
        }
      ],
      "name": "addVote",
      "outputs": [
        {
          "name": "",
          "type": "bool"
        }
      ],
      "payable": false,
      "stateMutability": "nonpayable",
      "type": "function",
      "signature": "0xbdd8b499"
    },
    {
      "constant": false,
      "inputs": [
        {
          "name": "_pos",
          "type": "string"
        }
      ],
      "name": "removeVote",
      "outputs": [
        {
          "name": "",
          "type": "bool"
        }
      ],
      "payable": false,
      "stateMutability": "nonpayable",
      "type": "function",
      "signature": "0x15623f1f"
    },
    {
      "constant": false,
      "inputs": [
        {
          "name": "_pos",
          "type": "string"
        }
      ],
      "name": "addCandidate",
      "outputs": [
        {
          "name": "success",
          "type": "bool"
        }
      ],
      "payable": false,
      "stateMutability": "nonpayable",
      "type": "function",
      "signature": "0x462e91ec"
    },
    {
      "constant": false,
      "inputs": [
        {
          "name": "_pos",
          "type": "string"
        }
      ],
      "name": "removeCandidate",
      "outputs": [
        {
          "name": "success",
          "type": "bool"
        }
      ],
      "payable": false,
      "stateMutability": "nonpayable",
      "type": "function",
      "signature": "0x01c9605b"
    },
    {
      "constant": false,
      "inputs": [
        {
          "name": "_fname",
          "type": "string"
        },
        {
          "name": "_lname",
          "type": "string"
        },
        {
          "name": "_mat",
          "type": "uint256"
        },
        {
          "name": "_sch",
          "type": "uint8"
        },
        {
          "name": "_addr",
          "type": "address"
        }
      ],
      "name": "addStudent",
      "outputs": [
        {
          "name": "success",
          "type": "bool"
        }
      ],
      "payable": false,
      "stateMutability": "nonpayable",
      "type": "function",
      "signature": "0x7b3bc060"
    },
    {
      "constant": false,
      "inputs": [
        {
          "name": "_mat",
          "type": "uint256"
        }
      ],
      "name": "removeStudent",
      "outputs": [
        {
          "name": "success",
          "type": "bool"
        }
      ],
      "payable": false,
      "stateMutability": "nonpayable",
      "type": "function",
      "signature": "0x6af83845"
    },
    {
      "constant": false,
      "inputs": [],
      "name": "dismantleSRC",
      "outputs": [],
      "payable": false,
      "stateMutability": "nonpayable",
      "type": "function",
      "signature": "0x7e2a0962"
    },
    {
      "constant": true,
      "inputs": [
        {
          "name": "_addr",
          "type": "address"
        }
      ],
      "name": "getStudent",
      "outputs": [
        {
          "name": "_fname",
          "type": "string"
        },
        {
          "name": "_lname",
          "type": "string"
        },
        {
          "name": "_sch",
          "type": "uint8"
        },
        {
          "name": "_matric",
          "type": "uint256"
        },
        {
          "name": "_outAddr",
          "type": "address"
        }
      ],
      "payable": false,
      "stateMutability": "view",
      "type": "function",
      "signature": "0x6b7b44d7"
    },
    {
      "constant": true,
      "inputs": [],
      "name": "getStudentArr",
      "outputs": [
        {
          "name": "",
          "type": "address[]"
        }
      ],
      "payable": false,
      "stateMutability": "view",
      "type": "function",
      "signature": "0x40a93a63"
    },
    {
      "constant": true,
      "inputs": [],
      "name": "getAdmin",
      "outputs": [
        {
          "name": "",
          "type": "address"
        }
      ],
      "payable": false,
      "stateMutability": "view",
      "type": "function",
      "signature": "0x6e9960c3"
    },
    {
      "constant": true,
      "inputs": [],
      "name": "getPositions",
      "outputs": [
        {
          "name": "",
          "type": "address[]"
        }
      ],
      "payable": false,
      "stateMutability": "view",
      "type": "function",
      "signature": "0x80275860"
    },
    {
      "constant": true,
      "inputs": [
        {
          "name": "_posName",
          "type": "string"
        }
      ],
      "name": "getPositionAddress",
      "outputs": [
        {
          "name": "",
          "type": "address"
        }
      ],
      "payable": false,
      "stateMutability": "view",
      "type": "function",
      "signature": "0x367b23a5"
    },
    {
      "constant": true,
      "inputs": [],
      "name": "getPositionLength",
      "outputs": [
        {
          "name": "",
          "type": "uint256"
        }
      ],
      "payable": false,
      "stateMutability": "view",
      "type": "function",
      "signature": "0x5edcb074"
    }
  ],
  "bytecode": "0x608060405234801561001057600080fd5b5033600660006101000a81548173ffffffffffffffffffffffffffffffffffffffff021916908373ffffffffffffffffffffffffffffffffffffffff160217905550615a1d806100616000396000f3fe608060405260043610620000f7576000357c0100000000000000000000000000000000000000000000000000000000900463ffffffff16806301c9605b14620000f957806315623f1f14620001e0578063367b23a514620002c75780633fc6aa8114620003d657806340a93a6314620004bd578063462e91ec146200052e5780635c59238a14620006155780635edcb07414620007045780636af8384514620007325780636b7b44d714620007895780636e9960c314620009105780637b3bc060146200096a5780637e2a09621462000b22578063802758601462000b3c578063bdd8b4991462000bad578063e4a155521462000d2b575b005b3480156200010657600080fd5b50620001c6600480360360208110156200011f57600080fd5b81019080803590602001906401000000008111156200013d57600080fd5b8201836020820111156200015057600080fd5b803590602001918460018302840111640100000000831117156200017357600080fd5b91908080601f016020809104026020016040519081016040528093929190818152602001838380828437600081840152601f19601f82011690508083019250505050505050919291929050505062000e1f565b604051808215151515815260200191505060405180910390f35b348015620001ed57600080fd5b50620002ad600480360360208110156200020657600080fd5b81019080803590602001906401000000008111156200022457600080fd5b8201836020820111156200023757600080fd5b803590602001918460018302840111640100000000831117156200025a57600080fd5b91908080601f016020809104026020016040519081016040528093929190818152602001838380828437600081840152601f19601f82011690508083019250505050505050919291929050505062000feb565b604051808215151515815260200191505060405180910390f35b348015620002d457600080fd5b506200039460048036036020811015620002ed57600080fd5b81019080803590602001906401000000008111156200030b57600080fd5b8201836020820111156200031e57600080fd5b803590602001918460018302840111640100000000831117156200034157600080fd5b91908080601f016020809104026020016040519081016040528093929190818152602001838380828437600081840152601f19601f8201169050808301925050505050505091929192905050506200123a565b604051808273ffffffffffffffffffffffffffffffffffffffff1673ffffffffffffffffffffffffffffffffffffffff16815260200191505060405180910390f35b348015620003e357600080fd5b50620004a360048036036020811015620003fc57600080fd5b81019080803590602001906401000000008111156200041a57600080fd5b8201836020820111156200042d57600080fd5b803590602001918460018302840111640100000000831117156200045057600080fd5b91908080601f016020809104026020016040519081016040528093929190818152602001838380828437600081840152601f19601f8201169050808301925050505050505091929192905050506200136f565b604051808215151515815260200191505060405180910390f35b348015620004ca57600080fd5b50620004d562001b18565b6040518080602001828103825283818151815260200191508051906020019060200280838360005b838110156200051a578082015181840152602081019050620004fd565b505050509050019250505060405180910390f35b3480156200053b57600080fd5b50620005fb600480360360208110156200055457600080fd5b81019080803590602001906401000000008111156200057257600080fd5b8201836020820111156200058557600080fd5b80359060200191846001830284011164010000000083111715620005a857600080fd5b91908080601f016020809104026020016040519081016040528093929190818152602001838380828437600081840152601f19601f82011690508083019250505050505050919291929050505062001ba8565b604051808215151515815260200191505060405180910390f35b3480156200062257600080fd5b5062000702600480360360408110156200063b57600080fd5b81019080803590602001906401000000008111156200065957600080fd5b8201836020820111156200066c57600080fd5b803590602001918460018302840111640100000000831117156200068f57600080fd5b91908080601f016020809104026020016040519081016040528093929190818152602001838380828437600081840152601f19601f820116905080830192505050505050509192919290803573ffffffffffffffffffffffffffffffffffffffff16906020019092919050505062001e8f565b005b3480156200071157600080fd5b506200071c620020d0565b6040518082815260200191505060405180910390f35b3480156200073f57600080fd5b506200076f600480360360208110156200075857600080fd5b8101908080359060200190929190505050620020dd565b604051808215151515815260200191505060405180910390f35b3480156200079657600080fd5b50620007dc60048036036020811015620007af57600080fd5b81019080803573ffffffffffffffffffffffffffffffffffffffff16906020019092919050505062002652565b6040518080602001806020018660ff1660ff1681526020018581526020018473ffffffffffffffffffffffffffffffffffffffff1673ffffffffffffffffffffffffffffffffffffffff168152602001838103835288818151815260200191508051906020019080838360005b838110156200086657808201518184015260208101905062000849565b50505050905090810190601f168015620008945780820380516001836020036101000a031916815260200191505b50838103825287818151815260200191508051906020019080838360005b83811015620008cf578082015181840152602081019050620008b2565b50505050905090810190601f168015620008fd5780820380516001836020036101000a031916815260200191505b5097505050505050505060405180910390f35b3480156200091d57600080fd5b506200092862002886565b604051808273ffffffffffffffffffffffffffffffffffffffff1673ffffffffffffffffffffffffffffffffffffffff16815260200191505060405180910390f35b3480156200097757600080fd5b5062000b08600480360360a08110156200099057600080fd5b8101908080359060200190640100000000811115620009ae57600080fd5b820183602082011115620009c157600080fd5b80359060200191846001830284011164010000000083111715620009e457600080fd5b91908080601f016020809104026020016040519081016040528093929190818152602001838380828437600081840152601f19601f8201169050808301925050505050505091929192908035906020019064010000000081111562000a4857600080fd5b82018360208201111562000a5b57600080fd5b8035906020019184600183028401116401000000008311171562000a7e57600080fd5b91908080601f016020809104026020016040519081016040528093929190818152602001838380828437600081840152601f19601f82011690508083019250505050505050919291929080359060200190929190803560ff169060200190929190803573ffffffffffffffffffffffffffffffffffffffff169060200190929190505050620028b0565b604051808215151515815260200191505060405180910390f35b34801562000b2f57600080fd5b5062000b3a62002e0e565b005b34801562000b4957600080fd5b5062000b5462002e84565b6040518080602001828103825283818151815260200191508051906020019060200280838360005b8381101562000b9957808201518184015260208101905062000b7c565b505050509050019250505060405180910390f35b34801562000bba57600080fd5b5062000d116004803603604081101562000bd357600080fd5b810190808035906020019064010000000081111562000bf157600080fd5b82018360208201111562000c0457600080fd5b8035906020019184600183028401116401000000008311171562000c2757600080fd5b91908080601f016020809104026020016040519081016040528093929190818152602001838380828437600081840152601f19601f8201169050808301925050505050505091929192908035906020019064010000000081111562000c8b57600080fd5b82018360208201111562000c9e57600080fd5b8035906020019184602083028401116401000000008311171562000cc157600080fd5b919080806020026020016040519081016040528093929190818152602001838360200280828437600081840152601f19601f82011690508083019250505050505050919291929050505062002f14565b604051808215151515815260200191505060405180910390f35b34801562000d3857600080fd5b5062000e056004803603604081101562000d5157600080fd5b810190808035906020019064010000000081111562000d6f57600080fd5b82018360208201111562000d8257600080fd5b8035906020019184600183028401116401000000008311171562000da557600080fd5b91908080601f016020809104026020016040519081016040528093929190818152602001838380828437600081840152601f19601f820116905080830192505050505050509192919290803560ff169060200190929190505050620034af565b604051808215151515815260200191505060405180910390f35b600060011515600260003373ffffffffffffffffffffffffffffffffffffffff1673ffffffffffffffffffffffffffffffffffffffff16815260200190815260200160002060030160019054906101000a900460ff16151514151562000e8457600080fd5b6001806000846040518082805190602001908083835b60208310151562000ec1578051825260208201915060208101905060208303925062000e9a565b6001836020036101000a0380198251168184511680821785525050505050509050019150509081526020016040518091039020540381548110151562000f0357fe5b9060005260206000200160009054906101000a900473ffffffffffffffffffffffffffffffffffffffff1673ffffffffffffffffffffffffffffffffffffffff16636dd091f9336040518263ffffffff167c0100000000000000000000000000000000000000000000000000000000028152600401808273ffffffffffffffffffffffffffffffffffffffff1673ffffffffffffffffffffffffffffffffffffffff168152602001915050600060405180830381600087803b15801562000fc957600080fd5b505af115801562000fde573d6000803e3d6000fd5b5050505060019050919050565b600060011515600260003373ffffffffffffffffffffffffffffffffffffffff1673ffffffffffffffffffffffffffffffffffffffff16815260200190815260200160002060030160019054906101000a900460ff1615151415156200105057600080fd5b600080836040518082805190602001908083835b6020831015156200108b578051825260208201915060208101905060208303925062001064565b6001836020036101000a03801982511681845116808217855250505050505090500191505090815260200160405180910390205414151515620010cd57600080fd5b60006001806000856040518082805190602001908083835b6020831015156200110c5780518252602082019150602081019050602083039250620010e5565b6001836020036101000a038019825116818451168082178552505050505050905001915050908152602001604051809103902054038154811015156200114e57fe5b9060005260206000200160009054906101000a900473ffffffffffffffffffffffffffffffffffffffff1690508073ffffffffffffffffffffffffffffffffffffffff16633ccc1f53336040518263ffffffff167c0100000000000000000000000000000000000000000000000000000000028152600401808273ffffffffffffffffffffffffffffffffffffffff1673ffffffffffffffffffffffffffffffffffffffff168152602001915050600060405180830381600087803b1580156200121757600080fd5b505af11580156200122c573d6000803e3d6000fd5b505050506001915050919050565b6000806000836040518082805190602001908083835b60208310151562001277578051825260208201915060208101905060208303925062001250565b6001836020036101000a03801982511681845116808217855250505050505090500191505090815260200160405180910390205414151562001365576001806000846040518082805190602001908083835b602083101515620012f05780518252602082019150602081019050602083039250620012c9565b6001836020036101000a038019825116818451168082178552505050505050905001915050908152602001604051809103902054038154811015156200133257fe5b9060005260206000200160009054906101000a900473ffffffffffffffffffffffffffffffffffffffff1690506200136a565b600090505b919050565b6000600660009054906101000a900473ffffffffffffffffffffffffffffffffffffffff1673ffffffffffffffffffffffffffffffffffffffff163373ffffffffffffffffffffffffffffffffffffffff16141515620013ce57600080fd5b600080836040518082805190602001908083835b602083101515620014095780518252602082019150602081019050602083039250620013e2565b6001836020036101000a03801982511681845116808217855250505050505090500191505090815260200160405180910390205414806200144f57506000600180549050145b156200145f576000905062001b13565b600180805490501480620014e457506001805490506000836040518082805190602001908083835b602083101515620014ae578051825260208201915060208101905060208303925062001487565b6001836020036101000a038019825116818451168082178552505050505050905001915050908152602001604051809103902054145b15620016a1576001806000846040518082805190602001908083835b60208310151562001527578051825260208201915060208101905060208303925062001500565b6001836020036101000a038019825116818451168082178552505050505050905001915050908152602001604051809103902054038154811015156200156957fe5b9060005260206000200160009054906101000a900473ffffffffffffffffffffffffffffffffffffffff1673ffffffffffffffffffffffffffffffffffffffff166341c0e1b56040518163ffffffff167c0100000000000000000000000000000000000000000000000000000000028152600401600060405180830381600087803b158015620015f857600080fd5b505af11580156200160d573d6000803e3d6000fd5b505050506001808054905003600181620016289190620037b2565b50600080836040518082805190602001908083835b6020831015156200166457805182526020820191506020810190506020830392506200163d565b6001836020036101000a03801982511681845116808217855250505050505090500191505090815260200160405180910390208190555062001b0e565b600080836040518082805190602001908083835b602083101515620016dc5780518252602082019150602081019050602083039250620016b5565b6001836020036101000a038019825116818451168082178552505050505050905001915050908152602001604051809103902054905060606001808080549050038154811015156200172a57fe5b9060005260206000200160009054906101000a900473ffffffffffffffffffffffffffffffffffffffff1673ffffffffffffffffffffffffffffffffffffffff1663ff3c1a8f6040518163ffffffff167c010000000000000000000000000000000000000000000000000000000002815260040160006040518083038186803b158015620017b757600080fd5b505afa158015620017cc573d6000803e3d6000fd5b505050506040513d6000823e3d601f19601f820116820180604052506020811015620017f757600080fd5b8101908080516401000000008111156200181057600080fd5b828101905060208101848111156200182757600080fd5b81518560018202830111640100000000821117156200184557600080fd5b50509291905050509050600060018084038154811015156200186357fe5b9060005260206000200160009054906101000a900473ffffffffffffffffffffffffffffffffffffffff1690506000600180808054905003815481101515620018a857fe5b9060005260206000200160009054906101000a900473ffffffffffffffffffffffffffffffffffffffff169050806001808603815481101515620018e857fe5b9060005260206000200160006101000a81548173ffffffffffffffffffffffffffffffffffffffff021916908373ffffffffffffffffffffffffffffffffffffffff160217905550836000846040518082805190602001908083835b6020831015156200196b578051825260208201915060208101905060208303925062001944565b6001836020036101000a03801982511681845116808217855250505050505090500191505090815260200160405180910390208190555081600180808054905003815481101515620019b957fe5b9060005260206000200160006101000a81548173ffffffffffffffffffffffffffffffffffffffff021916908373ffffffffffffffffffffffffffffffffffffffff160217905550600080876040518082805190602001908083835b60208310151562001a3c578051825260208201915060208101905060208303925062001a15565b6001836020036101000a0380198251168184511680821785525050505050509050019150509081526020016040518091039020819055508173ffffffffffffffffffffffffffffffffffffffff166341c0e1b56040518163ffffffff167c0100000000000000000000000000000000000000000000000000000000028152600401600060405180830381600087803b15801562001ad857600080fd5b505af115801562001aed573d6000803e3d6000fd5b50505050600180805490500360018162001b089190620037b2565b50505050505b600190505b919050565b6060600480548060200260200160405190810160405280929190818152602001828054801562001b9e57602002820191906000526020600020905b8160009054906101000a900473ffffffffffffffffffffffffffffffffffffffff1673ffffffffffffffffffffffffffffffffffffffff168152602001906001019080831162001b53575b5050505050905090565b600060011515600260003373ffffffffffffffffffffffffffffffffffffffff1673ffffffffffffffffffffffffffffffffffffffff16815260200190815260200160002060030160019054906101000a900460ff16151514151562001c0d57600080fd5b60006001806000856040518082805190602001908083835b60208310151562001c4c578051825260208201915060208101905060208303925062001c25565b6001836020036101000a0380198251168184511680821785525050505050509050019150509081526020016040518091039020540381548110151562001c8e57fe5b9060005260206000200160009054906101000a900473ffffffffffffffffffffffffffffffffffffffff1690508073ffffffffffffffffffffffffffffffffffffffff16635637543a600260003373ffffffffffffffffffffffffffffffffffffffff1673ffffffffffffffffffffffffffffffffffffffff16815260200190815260200160002060030160009054906101000a900460ff166040518263ffffffff167c01000000000000000000000000000000000000000000000000000000000281526004018082600981111562001d6357fe5b60ff16815260200191505060206040518083038186803b15801562001d8757600080fd5b505afa15801562001d9c573d6000803e3d6000fd5b505050506040513d602081101562001db357600080fd5b8101908080519060200190929190505050151562001dd057600080fd5b8073ffffffffffffffffffffffffffffffffffffffff16633acd75f8336040518263ffffffff167c0100000000000000000000000000000000000000000000000000000000028152600401808273ffffffffffffffffffffffffffffffffffffffff1673ffffffffffffffffffffffffffffffffffffffff168152602001915050600060405180830381600087803b15801562001e6c57600080fd5b505af115801562001e81573d6000803e3d6000fd5b505050506001915050919050565b600660009054906101000a900473ffffffffffffffffffffffffffffffffffffffff1673ffffffffffffffffffffffffffffffffffffffff163373ffffffffffffffffffffffffffffffffffffffff1614151562001eec57600080fd5b600080836040518082805190602001908083835b60208310151562001f27578051825260208201915060208101905060208303925062001f00565b6001836020036101000a03801982511681845116808217855250505050505090500191505090815260200160405180910390205411151562001f6857600080fd5b60006001806000856040518082805190602001908083835b60208310151562001fa7578051825260208201915060208101905060208303925062001f80565b6001836020036101000a0380198251168184511680821785525050505050509050019150509081526020016040518091039020540381548110151562001fe957fe5b9060005260206000200160009054906101000a900473ffffffffffffffffffffffffffffffffffffffff1690508073ffffffffffffffffffffffffffffffffffffffff1663d979f5aa836040518263ffffffff167c0100000000000000000000000000000000000000000000000000000000028152600401808273ffffffffffffffffffffffffffffffffffffffff1673ffffffffffffffffffffffffffffffffffffffff168152602001915050600060405180830381600087803b158015620020b257600080fd5b505af1158015620020c7573d6000803e3d6000fd5b50505050505050565b6000600180549050905090565b6000806005600084815260200190815260200160002060009054906101000a900473ffffffffffffffffffffffffffffffffffffffff16905082600260003373ffffffffffffffffffffffffffffffffffffffff1673ffffffffffffffffffffffffffffffffffffffff168152602001908152602001600020600201541480620021b45750600660009054906101000a900473ffffffffffffffffffffffffffffffffffffffff1673ffffffffffffffffffffffffffffffffffffffff163373ffffffffffffffffffffffffffffffffffffffff16145b1515620021c057600080fd5b600073ffffffffffffffffffffffffffffffffffffffff168173ffffffffffffffffffffffffffffffffffffffff1614151515620021fd57600080fd5b600260008273ffffffffffffffffffffffffffffffffffffffff1673ffffffffffffffffffffffffffffffffffffffff16815260200190815260200160002060030160019054906101000a900460ff1615156200225957600080fd5b60016004805490501480620022db57508073ffffffffffffffffffffffffffffffffffffffff1660046001600480549050038154811015156200229857fe5b9060005260206000200160009054906101000a900473ffffffffffffffffffffffffffffffffffffffff1673ffffffffffffffffffffffffffffffffffffffff16145b156200237857600160048054905003600481620022f99190620037e1565b506000600360006005600087815260200190815260200160002060009054906101000a900473ffffffffffffffffffffffffffffffffffffffff1673ffffffffffffffffffffffffffffffffffffffff1673ffffffffffffffffffffffffffffffffffffffff1681526020019081526020016000208190555062002504565b600060046001600480549050038154811015156200239257fe5b9060005260206000200160009054906101000a900473ffffffffffffffffffffffffffffffffffffffff1690506000600360008473ffffffffffffffffffffffffffffffffffffffff1673ffffffffffffffffffffffffffffffffffffffff16815260200190815260200160002054905080600360008473ffffffffffffffffffffffffffffffffffffffff1673ffffffffffffffffffffffffffffffffffffffff168152602001908152602001600020819055506000600360008573ffffffffffffffffffffffffffffffffffffffff1673ffffffffffffffffffffffffffffffffffffffff1681526020019081526020016000208190555081600460018303815481101515620024a057fe5b9060005260206000200160006101000a81548173ffffffffffffffffffffffffffffffffffffffff021916908373ffffffffffffffffffffffffffffffffffffffff160217905550600160048054905003600481620025009190620037e1565b5050505b600260008273ffffffffffffffffffffffffffffffffffffffff1673ffffffffffffffffffffffffffffffffffffffff1681526020019081526020016000206000808201600062002556919062003810565b60018201600062002568919062003810565b60028201600090556003820160006101000a81549060ff02191690556003820160016101000a81549060ff021916905550506000600260008373ffffffffffffffffffffffffffffffffffffffff1673ffffffffffffffffffffffffffffffffffffffff16815260200190815260200160002060030160016101000a81548160ff02191690831515021790555060006005600085815260200190815260200160002060006101000a81548173ffffffffffffffffffffffffffffffffffffffff021916908373ffffffffffffffffffffffffffffffffffffffff1602179055506001915050919050565b6060806000806000620026646200385c565b600260008873ffffffffffffffffffffffffffffffffffffffff1673ffffffffffffffffffffffffffffffffffffffff16815260200190815260200160002060a06040519081016040529081600082018054600181600116156101000203166002900480601f0160208091040260200160405190810160405280929190818152602001828054600181600116156101000203166002900480156200274c5780601f1062002720576101008083540402835291602001916200274c565b820191906000526020600020905b8154815290600101906020018083116200272e57829003601f168201915b50505050508152602001600182018054600181600116156101000203166002900480601f016020809104026020016040519081016040528092919081815260200182805460018160011615610100020316600290048015620027f25780601f10620027c657610100808354040283529160200191620027f2565b820191906000526020600020905b815481529060010190602001808311620027d457829003601f168201915b50505050508152602001600282015481526020016003820160009054906101000a900460ff1660098111156200282457fe5b60098111156200283057fe5b81526020016003820160019054906101000a900460ff16151515158152505090508060000151955080602001519450806060015160098111156200287057fe5b9350806040015192508691505091939590929450565b6000600660009054906101000a900473ffffffffffffffffffffffffffffffffffffffff16905090565b6000600660009054906101000a900473ffffffffffffffffffffffffffffffffffffffff1673ffffffffffffffffffffffffffffffffffffffff163373ffffffffffffffffffffffffffffffffffffffff161415156200290f57600080fd5b60011515600260008473ffffffffffffffffffffffffffffffffffffffff1673ffffffffffffffffffffffffffffffffffffffff16815260200190815260200160002060030160019054906101000a900460ff161515141515156200297357600080fd5b600073ffffffffffffffffffffffffffffffffffffffff166005600086815260200190815260200160002060009054906101000a900473ffffffffffffffffffffffffffffffffffffffff1673ffffffffffffffffffffffffffffffffffffffff16141515620029e257600080fd5b620029ec6200385c565b600260008473ffffffffffffffffffffffffffffffffffffffff1673ffffffffffffffffffffffffffffffffffffffff16815260200190815260200160002060a06040519081016040529081600082018054600181600116156101000203166002900480601f01602080910402602001604051908101604052809291908181526020018280546001816001161561010002031660029004801562002ad45780601f1062002aa85761010080835404028352916020019162002ad4565b820191906000526020600020905b81548152906001019060200180831162002ab657829003601f168201915b50505050508152602001600182018054600181600116156101000203166002900480601f01602080910402602001604051908101604052809291908181526020018280546001816001161561010002031660029004801562002b7a5780601f1062002b4e5761010080835404028352916020019162002b7a565b820191906000526020600020905b81548152906001019060200180831162002b5c57829003601f168201915b50505050508152602001600282015481526020016003820160009054906101000a900460ff16600981111562002bac57fe5b600981111562002bb857fe5b81526020016003820160019054906101000a900460ff161515151581525050905086816000018190525085816020018190525084816040018181525050838160600190600981111562002c0757fe5b9081600981111562002c1557fe5b81525050600181608001901515908115158152505080600260008573ffffffffffffffffffffffffffffffffffffffff1673ffffffffffffffffffffffffffffffffffffffff168152602001908152602001600020600082015181600001908051906020019062002c889291906200389a565b50602082015181600101908051906020019062002ca79291906200389a565b506040820151816002015560608201518160030160006101000a81548160ff0219169083600981111562002cd757fe5b021790555060808201518160030160016101000a81548160ff021916908315150217905550905050826005600087815260200190815260200160002060006101000a81548173ffffffffffffffffffffffffffffffffffffffff021916908373ffffffffffffffffffffffffffffffffffffffff16021790555060048390806001815401808255809150509060018203906000526020600020016000909192909190916101000a81548173ffffffffffffffffffffffffffffffffffffffff021916908373ffffffffffffffffffffffffffffffffffffffff16021790555050600480549050600360008573ffffffffffffffffffffffffffffffffffffffff1673ffffffffffffffffffffffffffffffffffffffff16815260200190815260200160002081905550600191505095945050505050565b600660009054906101000a900473ffffffffffffffffffffffffffffffffffffffff1673ffffffffffffffffffffffffffffffffffffffff163373ffffffffffffffffffffffffffffffffffffffff1614151562002e6b57600080fd5b3373ffffffffffffffffffffffffffffffffffffffff16ff5b6060600180548060200260200160405190810160405280929190818152602001828054801562002f0a57602002820191906000526020600020905b8160009054906101000a900473ffffffffffffffffffffffffffffffffffffffff1673ffffffffffffffffffffffffffffffffffffffff168152602001906001019080831162002ebf575b5050505050905090565b600060011515600260003373ffffffffffffffffffffffffffffffffffffffff1673ffffffffffffffffffffffffffffffffffffffff16815260200190815260200160002060030160019054906101000a900460ff16151514151562002f7957600080fd5b600080846040518082805190602001908083835b60208310151562002fb4578051825260208201915060208101905060208303925062002f8d565b6001836020036101000a038019825116818451168082178552505050505050905001915050908152602001604051809103902054141562002ff95760009050620034a9565b60006001806000866040518082805190602001908083835b60208310151562003038578051825260208201915060208101905060208303925062003011565b6001836020036101000a038019825116818451168082178552505050505050905001915050908152602001604051809103902054038154811015156200307a57fe5b9060005260206000200160009054906101000a900473ffffffffffffffffffffffffffffffffffffffff1690508073ffffffffffffffffffffffffffffffffffffffff16630ea70fb8846040518263ffffffff167c01000000000000000000000000000000000000000000000000000000000281526004018080602001828103825283818151815260200191508051906020019060200280838360005b838110156200313457808201518184015260208101905062003117565b505050509050019250505060206040518083038186803b1580156200315857600080fd5b505afa1580156200316d573d6000803e3d6000fd5b505050506040513d60208110156200318457600080fd5b81019080805190602001909291905050501515620031a157600080fd5b8073ffffffffffffffffffffffffffffffffffffffff1663bf60cb5f336040518263ffffffff167c0100000000000000000000000000000000000000000000000000000000028152600401808273ffffffffffffffffffffffffffffffffffffffff1673ffffffffffffffffffffffffffffffffffffffff16815260200191505060206040518083038186803b1580156200323b57600080fd5b505afa15801562003250573d6000803e3d6000fd5b505050506040513d60208110156200326757600080fd5b81019080805190602001909291905050501562003289576000915050620034a9565b8073ffffffffffffffffffffffffffffffffffffffff16635637543a600260003373ffffffffffffffffffffffffffffffffffffffff1673ffffffffffffffffffffffffffffffffffffffff16815260200190815260200160002060030160009054906101000a900460ff166040518263ffffffff167c0100000000000000000000000000000000000000000000000000000000028152600401808260098111156200333157fe5b60ff16815260200191505060206040518083038186803b1580156200335557600080fd5b505afa1580156200336a573d6000803e3d6000fd5b505050506040513d60208110156200338157600080fd5b81019080805190602001909291905050501515620033a4576000915050620034a9565b8073ffffffffffffffffffffffffffffffffffffffff1662ea4d2533856040518363ffffffff167c0100000000000000000000000000000000000000000000000000000000028152600401808373ffffffffffffffffffffffffffffffffffffffff1673ffffffffffffffffffffffffffffffffffffffff16815260200180602001828103825283818151815260200191508051906020019060200280838360005b838110156200346357808201518184015260208101905062003446565b505050509050019350505050600060405180830381600087803b1580156200348a57600080fd5b505af11580156200349f573d6000803e3d6000fd5b5050505060019150505b92915050565b6000600660009054906101000a900473ffffffffffffffffffffffffffffffffffffffff1673ffffffffffffffffffffffffffffffffffffffff163373ffffffffffffffffffffffffffffffffffffffff161415156200350e57600080fd5b600080846040518082805190602001908083835b60208310151562003549578051825260208201915060208101905060208303925062003522565b6001836020036101000a0380198251168184511680821785525050505050509050019150509081526020016040518091039020541415156200358a57600080fd5b60008330600660009054906101000a900473ffffffffffffffffffffffffffffffffffffffff1685620035bc62003921565b80806020018573ffffffffffffffffffffffffffffffffffffffff1673ffffffffffffffffffffffffffffffffffffffff1681526020018473ffffffffffffffffffffffffffffffffffffffff1673ffffffffffffffffffffffffffffffffffffffff1681526020018360098111156200363257fe5b60ff168152602001828103825286818151815260200191508051906020019080838360005b838110156200367457808201518184015260208101905062003657565b50505050905090810190601f168015620036a25780820380516001836020036101000a031916815260200191505b5095505050505050604051809103906000f080158015620036c7573d6000803e3d6000fd5b50905060018190806001815401808255809150509060018203906000526020600020016000909192909190916101000a81548173ffffffffffffffffffffffffffffffffffffffff021916908373ffffffffffffffffffffffffffffffffffffffff160217905550506001805490506000856040518082805190602001908083835b60208310151562003770578051825260208201915060208101905060208303925062003749565b6001836020036101000a038019825116818451168082178552505050505050905001915050908152602001604051809103902081905550600191505092915050565b815481835581811115620037dc57818360005260206000209182019101620037db919062003932565b5b505050565b8154818355818111156200380b578183600052602060002091820191016200380a919062003932565b5b505050565b50805460018160011615610100020316600290046000825580601f1062003838575062003859565b601f01602090049060005260206000209081019062003858919062003932565b5b50565b60a060405190810160405280606081526020016060815260200160008152602001600060098111156200388b57fe5b81526020016000151581525090565b828054600181600116156101000203166002900490600052602060002090601f016020900481019282601f10620038dd57805160ff19168380011785556200390e565b828001600101855582156200390e579182015b828111156200390d578251825591602001919060010190620038f0565b5b5090506200391d919062003932565b5090565b604051612097806200395b83390190565b6200395791905b808211156200395357600081600090555060010162003939565b5090565b9056fe60806040523480156200001157600080fd5b506040516200209738038062002097833981018060405260808110156200003757600080fd5b8101908080516401000000008111156200005057600080fd5b828101905060208101848111156200006757600080fd5b81518560018202830111640100000000821117156200008557600080fd5b50509291906020018051906020019092919080519060200190929190805190602001909291905050508360039080519060200190620000c6929190620001db565b50826000806101000a81548173ffffffffffffffffffffffffffffffffffffffff021916908373ffffffffffffffffffffffffffffffffffffffff16021790555081600160006101000a81548173ffffffffffffffffffffffffffffffffffffffff021916908373ffffffffffffffffffffffffffffffffffffffff16021790555080600460016101000a81548160ff021916908360098111156200016757fe5b02179055506001600460006101000a81548160ff0219169083151502179055506000600260006101000a81548173ffffffffffffffffffffffffffffffffffffffff021916908373ffffffffffffffffffffffffffffffffffffffff1602179055506003600981905550505050506200028a565b828054600181600116156101000203166002900490600052602060002090601f016020900481019282601f106200021e57805160ff19168380011785556200024f565b828001600101855582156200024f579182015b828111156200024e57825182559160200191906001019062000231565b5b5090506200025e919062000262565b5090565b6200028791905b808211156200028357600081600090555060010162000269565b5090565b90565b611dfd806200029a6000396000f3fe6080604052600436106100f0576000357c0100000000000000000000000000000000000000000000000000000000900463ffffffff168062ea4d25146100f25780630ea70fb8146101d7578063288c72e8146102b457806329c68dc1146102df5780632e6997fe146102f65780633acd75f8146103625780633ccc1f53146103b357806341c0e1b5146104045780635637543a1461041b5780635a55c1f0146104715780636dd091f914610501578063748ce54614610552578063a9e3e7c1146105f8578063bf60cb5f14610631578063d979f5aa1461069a578063fbbf93a0146106eb578063ff3c1a8f146107f9575b005b3480156100fe57600080fd5b506101d56004803603604081101561011557600080fd5b81019080803573ffffffffffffffffffffffffffffffffffffffff1690602001909291908035906020019064010000000081111561015257600080fd5b82018360208201111561016457600080fd5b8035906020019184602083028401116401000000008311171561018657600080fd5b919080806020026020016040519081016040528093929190818152602001838360200280828437600081840152601f19601f820116905080830192505050505050509192919290505050610889565b005b3480156101e357600080fd5b5061029a600480360360208110156101fa57600080fd5b810190808035906020019064010000000081111561021757600080fd5b82018360208201111561022957600080fd5b8035906020019184602083028401116401000000008311171561024b57600080fd5b919080806020026020016040519081016040528093929190818152602001838360200280828437600081840152601f19601f820116905080830192505050505050509192919290505050610a6e565b604051808215151515815260200191505060405180910390f35b3480156102c057600080fd5b506102c9610bad565b6040518082815260200191505060405180910390f35b3480156102eb57600080fd5b506102f4610bba565b005b34801561030257600080fd5b5061030b610cc0565b6040518080602001828103825283818151815260200191508051906020019060200280838360005b8381101561034e578082015181840152602081019050610333565b505050509050019250505060405180910390f35b34801561036e57600080fd5b506103b16004803603602081101561038557600080fd5b81019080803573ffffffffffffffffffffffffffffffffffffffff169060200190929190505050610d4e565b005b3480156103bf57600080fd5b50610402600480360360208110156103d657600080fd5b81019080803573ffffffffffffffffffffffffffffffffffffffff169060200190929190505050610f01565b005b34801561041057600080fd5b506104196112c4565b005b34801561042757600080fd5b506104576004803603602081101561043e57600080fd5b81019080803560ff169060200190929190505050611390565b604051808215151515815260200191505060405180910390f35b34801561047d57600080fd5b506104aa6004803603602081101561049457600080fd5b8101908080359060200190929190505050611402565b6040518080602001828103825283818151815260200191508051906020019060200280838360005b838110156104ed5780820151818401526020810190506104d2565b505050509050019250505060405180910390f35b34801561050d57600080fd5b506105506004803603602081101561052457600080fd5b81019080803573ffffffffffffffffffffffffffffffffffffffff1690602001909291905050506114b0565b005b34801561055e57600080fd5b506105a16004803603602081101561057557600080fd5b81019080803573ffffffffffffffffffffffffffffffffffffffff16906020019092919050505061173b565b6040518080602001828103825283818151815260200191508051906020019060200280838360005b838110156105e45780820151818401526020810190506105c9565b505050509050019250505060405180910390f35b34801561060457600080fd5b5061060d611882565b6040518082600981111561061d57fe5b60ff16815260200191505060405180910390f35b34801561063d57600080fd5b506106806004803603602081101561065457600080fd5b81019080803573ffffffffffffffffffffffffffffffffffffffff169060200190929190505050611899565b604051808215151515815260200191505060405180910390f35b3480156106a657600080fd5b506106e9600480360360208110156106bd57600080fd5b81019080803573ffffffffffffffffffffffffffffffffffffffff1690602001909291905050506118f5565b005b3480156106f757600080fd5b50610700611a11565b60405180806020018660ff1660ff1681526020018573ffffffffffffffffffffffffffffffffffffffff1673ffffffffffffffffffffffffffffffffffffffff1681526020018473ffffffffffffffffffffffffffffffffffffffff1673ffffffffffffffffffffffffffffffffffffffff16815260200183151515158152602001828103825287818151815260200191508051906020019080838360005b838110156107ba57808201518184015260208101905061079f565b50505050905090810190601f1680156107e75780820380516001836020036101000a031916815260200191505b50965050505050505060405180910390f35b34801561080557600080fd5b5061080e611b14565b6040518080602001828103825283818151815260200191508051906020019080838360005b8381101561084e578082015181840152602081019050610833565b50505050905090810190601f16801561087b5780820380516001836020036101000a031916815260200191505b509250505060405180910390f35b6000809054906101000a900473ffffffffffffffffffffffffffffffffffffffff1673ffffffffffffffffffffffffffffffffffffffff163373ffffffffffffffffffffffffffffffffffffffff1614806109315750600160009054906101000a900473ffffffffffffffffffffffffffffffffffffffff1673ffffffffffffffffffffffffffffffffffffffff163373ffffffffffffffffffffffffffffffffffffffff16145b151561093c57600080fd5b610944611bb6565b82816000019073ffffffffffffffffffffffffffffffffffffffff16908173ffffffffffffffffffffffffffffffffffffffff16815250508181602001819052506008819080600181540180825580915050906001820390600052602060002090600202016000909192909190915060008201518160000160006101000a81548173ffffffffffffffffffffffffffffffffffffffff021916908373ffffffffffffffffffffffffffffffffffffffff1602179055506020820151816001019080519060200190610a16929190611be6565b505050506000600880549050905080600760008673ffffffffffffffffffffffffffffffffffffffff1673ffffffffffffffffffffffffffffffffffffffff1681526020019081526020016000208190555050505050565b60008060009054906101000a900473ffffffffffffffffffffffffffffffffffffffff1673ffffffffffffffffffffffffffffffffffffffff163373ffffffffffffffffffffffffffffffffffffffff161480610b185750600160009054906101000a900473ffffffffffffffffffffffffffffffffffffffff1673ffffffffffffffffffffffffffffffffffffffff163373ffffffffffffffffffffffffffffffffffffffff16145b1515610b2357600080fd5b6001905060005b8251811015610ba4576000600560008584815181101515610b4757fe5b9060200190602002015173ffffffffffffffffffffffffffffffffffffffff1673ffffffffffffffffffffffffffffffffffffffff168152602001908152602001600020541415610b9757600091505b8080600101915050610b2a565b50809050919050565b6000600880549050905090565b6000809054906101000a900473ffffffffffffffffffffffffffffffffffffffff1673ffffffffffffffffffffffffffffffffffffffff163373ffffffffffffffffffffffffffffffffffffffff161480610c625750600160009054906101000a900473ffffffffffffffffffffffffffffffffffffffff1673ffffffffffffffffffffffffffffffffffffffff163373ffffffffffffffffffffffffffffffffffffffff16145b1515610c6d57600080fd5b600460009054906101000a900460ff1615610ca2576000600460006101000a81548160ff021916908315150217905550610cbe565b6001600460006101000a81548160ff0219169083151502179055505b565b60606006805480602002602001604051908101604052809291908181526020018280548015610d4457602002820191906000526020600020905b8160009054906101000a900473ffffffffffffffffffffffffffffffffffffffff1673ffffffffffffffffffffffffffffffffffffffff1681526020019060010190808311610cfa575b5050505050905090565b6000809054906101000a900473ffffffffffffffffffffffffffffffffffffffff1673ffffffffffffffffffffffffffffffffffffffff163373ffffffffffffffffffffffffffffffffffffffff161480610df65750600160009054906101000a900473ffffffffffffffffffffffffffffffffffffffff1673ffffffffffffffffffffffffffffffffffffffff163373ffffffffffffffffffffffffffffffffffffffff16145b1515610e0157600080fd5b6000600560008373ffffffffffffffffffffffffffffffffffffffff1673ffffffffffffffffffffffffffffffffffffffff16815260200190815260200160002054141515610e4f57600080fd5b60068190806001815401808255809150509060018203906000526020600020016000909192909190916101000a81548173ffffffffffffffffffffffffffffffffffffffff021916908373ffffffffffffffffffffffffffffffffffffffff16021790555050600680549050600560008373ffffffffffffffffffffffffffffffffffffffff1673ffffffffffffffffffffffffffffffffffffffff1681526020019081526020016000208190555050565b6000809054906101000a900473ffffffffffffffffffffffffffffffffffffffff1673ffffffffffffffffffffffffffffffffffffffff163373ffffffffffffffffffffffffffffffffffffffff161480610fa95750600160009054906101000a900473ffffffffffffffffffffffffffffffffffffffff1673ffffffffffffffffffffffffffffffffffffffff163373ffffffffffffffffffffffffffffffffffffffff16145b1515610fb457600080fd5b610fbc611bb6565b6008600160088054905003815481101515610fd357fe5b90600052602060002090600202016040805190810160405290816000820160009054906101000a900473ffffffffffffffffffffffffffffffffffffffff1673ffffffffffffffffffffffffffffffffffffffff1673ffffffffffffffffffffffffffffffffffffffff168152602001600182018054806020026020016040519081016040528092919081815260200182805480156110c757602002820191906000526020600020905b8160009054906101000a900473ffffffffffffffffffffffffffffffffffffffff1673ffffffffffffffffffffffffffffffffffffffff168152602001906001019080831161107d575b50505050508152505090508060086001600760008673ffffffffffffffffffffffffffffffffffffffff1673ffffffffffffffffffffffffffffffffffffffff168152602001908152602001600020540381548110151561112457fe5b906000526020600020906002020160008201518160000160006101000a81548173ffffffffffffffffffffffffffffffffffffffff021916908373ffffffffffffffffffffffffffffffffffffffff1602179055506020820151816001019080519060200190611195929190611be6565b50905050600760008373ffffffffffffffffffffffffffffffffffffffff1673ffffffffffffffffffffffffffffffffffffffff168152602001908152602001600020546007600060086001600880549050038154811015156111f457fe5b906000526020600020906002020160000160009054906101000a900473ffffffffffffffffffffffffffffffffffffffff1673ffffffffffffffffffffffffffffffffffffffff1673ffffffffffffffffffffffffffffffffffffffff168152602001908152602001600020819055506000600760008473ffffffffffffffffffffffffffffffffffffffff1673ffffffffffffffffffffffffffffffffffffffff168152602001908152602001600020819055506001600880549050036008816112bf9190611c70565b505050565b6000809054906101000a900473ffffffffffffffffffffffffffffffffffffffff1673ffffffffffffffffffffffffffffffffffffffff163373ffffffffffffffffffffffffffffffffffffffff16148061136c5750600160009054906101000a900473ffffffffffffffffffffffffffffffffffffffff1673ffffffffffffffffffffffffffffffffffffffff163373ffffffffffffffffffffffffffffffffffffffff16145b151561137757600080fd5b3373ffffffffffffffffffffffffffffffffffffffff16ff5b6000600460019054906101000a900460ff1660098111156113ad57fe5b8260098111156113b957fe5b14806113ea5750600060098111156113cd57fe5b600460019054906101000a900460ff1660098111156113e857fe5b145b156113f857600190506113fd565b600090505b919050565b606060088281548110151561141357fe5b90600052602060002090600202016001018054806020026020016040519081016040528092919081815260200182805480156114a457602002820191906000526020600020905b8160009054906101000a900473ffffffffffffffffffffffffffffffffffffffff1673ffffffffffffffffffffffffffffffffffffffff168152602001906001019080831161145a575b50505050509050919050565b6000809054906101000a900473ffffffffffffffffffffffffffffffffffffffff1673ffffffffffffffffffffffffffffffffffffffff163373ffffffffffffffffffffffffffffffffffffffff1614806115585750600160009054906101000a900473ffffffffffffffffffffffffffffffffffffffff1673ffffffffffffffffffffffffffffffffffffffff163373ffffffffffffffffffffffffffffffffffffffff16145b151561156357600080fd5b6000600560008373ffffffffffffffffffffffffffffffffffffffff1673ffffffffffffffffffffffffffffffffffffffff168152602001908152602001600020541115156115b157600080fd5b6000600560008373ffffffffffffffffffffffffffffffffffffffff1673ffffffffffffffffffffffffffffffffffffffff1681526020019081526020016000205490506000600660016006805490500381548110151561160e57fe5b9060005260206000200160009054906101000a900473ffffffffffffffffffffffffffffffffffffffff1690508060066001840381548110151561164e57fe5b9060005260206000200160006101000a81548173ffffffffffffffffffffffffffffffffffffffff021916908373ffffffffffffffffffffffffffffffffffffffff16021790555081600560008373ffffffffffffffffffffffffffffffffffffffff1673ffffffffffffffffffffffffffffffffffffffff168152602001908152602001600020819055506000600560008573ffffffffffffffffffffffffffffffffffffffff1673ffffffffffffffffffffffffffffffffffffffff168152602001908152602001600020819055506001600680549050036006816117359190611ca2565b50505050565b6060806000600760008573ffffffffffffffffffffffffffffffffffffffff1673ffffffffffffffffffffffffffffffffffffffff16815260200190815260200160002054141561178f578091505061187d565b60086001600760008673ffffffffffffffffffffffffffffffffffffffff1673ffffffffffffffffffffffffffffffffffffffff16815260200190815260200160002054038154811015156117e057fe5b906000526020600020906002020160010180548060200260200160405190810160405280929190818152602001828054801561187157602002820191906000526020600020905b8160009054906101000a900473ffffffffffffffffffffffffffffffffffffffff1673ffffffffffffffffffffffffffffffffffffffff1681526020019060010190808311611827575b50505050509050809150505b919050565b6000600460019054906101000a900460ff16905090565b600080600760008473ffffffffffffffffffffffffffffffffffffffff1673ffffffffffffffffffffffffffffffffffffffff1681526020019081526020016000205411156118eb57600190506118f0565b600090505b919050565b6000809054906101000a900473ffffffffffffffffffffffffffffffffffffffff1673ffffffffffffffffffffffffffffffffffffffff163373ffffffffffffffffffffffffffffffffffffffff16148061199d5750600160009054906101000a900473ffffffffffffffffffffffffffffffffffffffff1673ffffffffffffffffffffffffffffffffffffffff163373ffffffffffffffffffffffffffffffffffffffff16145b15156119a857600080fd5b600460009054906101000a900460ff161515611a0e5780600260006101000a81548173ffffffffffffffffffffffffffffffffffffffff021916908373ffffffffffffffffffffffffffffffffffffffff16021790555060086000611a0d9190611cce565b5b50565b606060008060008060038054600181600116156101000203166002900480601f016020809104026020016040519081016040528092919081815260200182805460018160011615610100020316600290048015611aaf5780601f10611a8457610100808354040283529160200191611aaf565b820191906000526020600020905b815481529060010190602001808311611a9257829003601f168201915b50505050509450600460019054906101000a900460ff166009811115611ad157fe5b9350309250600260009054906101000a900473ffffffffffffffffffffffffffffffffffffffff169150600460009054906101000a900460ff1690509091929394565b606060038054600181600116156101000203166002900480601f016020809104026020016040519081016040528092919081815260200182805460018160011615610100020316600290048015611bac5780601f10611b8157610100808354040283529160200191611bac565b820191906000526020600020905b815481529060010190602001808311611b8f57829003601f168201915b5050505050905090565b6040805190810160405280600073ffffffffffffffffffffffffffffffffffffffff168152602001606081525090565b828054828255906000526020600020908101928215611c5f579160200282015b82811115611c5e5782518260006101000a81548173ffffffffffffffffffffffffffffffffffffffff021916908373ffffffffffffffffffffffffffffffffffffffff16021790555091602001919060010190611c06565b5b509050611c6c9190611cf2565b5090565b815481835581811115611c9d57600202816002028360005260206000209182019101611c9c9190611d35565b5b505050565b815481835581811115611cc957818360005260206000209182019101611cc89190611d8b565b5b505050565b5080546000825560020290600052602060002090810190611cef9190611d35565b50565b611d3291905b80821115611d2e57600081816101000a81549073ffffffffffffffffffffffffffffffffffffffff021916905550600101611cf8565b5090565b90565b611d8891905b80821115611d8457600080820160006101000a81549073ffffffffffffffffffffffffffffffffffffffff0219169055600182016000611d7b9190611db0565b50600201611d3b565b5090565b90565b611dad91905b80821115611da9576000816000905550600101611d91565b5090565b90565b5080546000825590600052602060002090810190611dce9190611d8b565b5056fea165627a7a72305820efe296bfb307a502191667ee1f8ccac5f495e495ab6e4197900783e9764c0ff50029a165627a7a723058200cdcbe82cedf8af411a9e1164d62343e8e1d0b62bf673f49e7cefc0ad24fe8180029",
  "source": "pragma solidity ^0.5.0;\n\nimport \"./SRCLib.sol\";\nimport \"./SRCPosition.sol\";\n\ncontract SRC{\n\n    using SRCLib for SRCLib.Student;\n    using SRCLib for SRCLib.SchoolState;\n\n    mapping(string => uint256) positionLookup;\n    SRCPosition[] positions;\n\n    mapping(address => SRCLib.Student) students;\n    mapping(address => uint256) studentPos;\n    address[] studentArr;\n\n    mapping(uint256 => address) matricLookup;\n\n    address admin;\n\n    modifier isStudent{\n        require(students[msg.sender].isStudent == true);\n        _;\n    }\n\n    modifier isAdmin{\n      require(msg.sender == admin);\n      _;\n    }\n\n\n    constructor() public {\n      admin = msg.sender;\n    }\n\n    function addPosition(string memory _tit, SRCLib.SchoolState _sch) public isAdmin returns(bool success){\n\n        require(positionLookup[_tit] == 0);     //Check if contract already exists\n\n        SRCPosition newPos = new SRCPosition(_tit, address(this), admin, _sch);\n        positions.push(newPos);\n        positionLookup[_tit] = positions.length; //negate by one to get true position; 0 explicitly means null contract\n\n        return true;\n\n    }\n\n    function removePosition(string memory _tit) public isAdmin returns (bool success){\n\n        if(positionLookup[_tit] == 0 || positions.length == 0){\n            return false;\n        }\n\n        if(positions.length == 1 || positionLookup[_tit] == positions.length){\n\n            positions[positionLookup[_tit]-1].kill();\n            positions.length = positions.length-1;\n            positionLookup[_tit] = 0;\n\n        } else {\n\n            uint256 removePos = positionLookup[_tit];\n            string memory replaceTitle = positions[positions.length-1].getTitle();\n\n            //Get both Position contracts\n            SRCPosition toRemove = positions[removePos-1];\n            SRCPosition toSwap = positions[positions.length-1];\n\n            //Replace contract-to-remove with end contract\n            positions[removePos-1] = toSwap;\n            positionLookup[replaceTitle] = removePos;\n\n            //Replace end contract with contract-to-remove\n            positions[positions.length-1] = toRemove;\n            positionLookup[_tit] = 0;\n\n            //Delete contract-to-remove\n            toRemove.kill();\n            positions.length = positions.length-1;\n\n        }\n        return true;\n    }\n\n    function changeHolder(string memory _pos, address _addr) public isAdmin{\n        require(positionLookup[_pos] > 0);        //Ensure position exists\n        SRCPosition pos = positions[positionLookup[_pos]-1];\n        pos.setHolder(_addr);\n    }\n\n    function addVote(string memory _pos, address[] memory _addr) public isStudent returns (bool){\n\n\n        if(positionLookup[_pos] == 0){ return false; }  //Ensure position exists\n\n        SRCPosition pos = positions[positionLookup[_pos]-1];\n\n        require(pos.checkCandidateArray(_addr));\n\n        if(pos.checkIfHasVoted(msg.sender)){return false; }\n        if(!pos.checkIfCanVote(students[msg.sender].school)){return false; }\n\n        pos.addVote(msg.sender, _addr);\n\n        return true;\n    }\n\n    function removeVote(string memory _pos) public isStudent returns(bool){\n\n        require(positionLookup[_pos] != 0);\n        SRCPosition pos = positions[positionLookup[_pos]-1];\n        pos.removeVote(msg.sender);\n        return true;\n    }\n\n    function addCandidate(string memory _pos) public isStudent returns (bool success){\n        SRCPosition pos = positions[positionLookup[_pos]-1];\n        require(pos.checkIfCanVote(students[msg.sender].school));\n        pos.addCandidate(msg.sender);\n        return true;\n    }\n\n    function removeCandidate(string memory _pos) public isStudent returns (bool success){\n        positions[positionLookup[_pos]-1].removeCandidate(msg.sender);\n        return true;\n    }\n\n    function addStudent(string memory _fname, string memory _lname, uint256 _mat, SRCLib.SchoolState _sch, address _addr) public isAdmin returns (bool success){\n\n        //Check if student already exists\n        require(students[_addr].isStudent != true);\n        require(matricLookup[_mat] == address(0));\n\n        //Create student object\n        SRCLib.Student memory s = students[_addr];\n        s.fname = _fname;\n        s.lname = _lname;\n        s.matric = _mat;\n        s.school = _sch;\n        s.isStudent = true;\n\n        //Deploy to contract\n        students[_addr] = s;\n        matricLookup[_mat] = _addr;\n\n        //Add to student address list\n        studentArr.push(_addr);\n        studentPos[_addr] = studentArr.length;\n\n        return true;\n    }\n\n\n    function removeStudent(uint256 _mat) public returns (bool success){\n\n      address toDelete = matricLookup[_mat];\n\n      require(students[msg.sender].matric == _mat || msg.sender == admin);  //must be student removing himself, or admin\n      require(toDelete != address(0));          //address can't be null\n      require(students[toDelete].isStudent);    //student must exist\n\n      if(studentArr.length == 1 || studentArr[studentArr.length-1] == toDelete){\n        studentArr.length = studentArr.length -1;\n        studentPos[matricLookup[_mat]] = 0;\n\n      }\n      else{\n        //get student to swap\n        address toSwap = studentArr[studentArr.length-1];\n        uint256 swapPos = studentPos[toDelete];\n\n        studentPos[toSwap] = swapPos;\n        studentPos[toDelete] = 0;\n        studentArr[swapPos-1] = toSwap;\n        studentArr.length = studentArr.length -1;\n      }\n\n      delete students[toDelete];\n      students[toDelete].isStudent = false;     //frees up space without a lot of data manipulation\n      matricLookup[_mat] = address(0);\n\n      return true;\n    }\n\n    function dismantleSRC() public isAdmin{\n      selfdestruct(msg.sender);\n    }\n\n    ///GETTERS & SETTERS ///\n    function getStudent(address _addr) public view returns(string memory _fname, string memory _lname, uint8 _sch, uint256 _matric, address _outAddr){\n        SRCLib.Student memory s = students[_addr];\n        _fname = s.fname;\n        _lname = s.lname;\n        _sch = uint8(s.school);\n        _matric = s.matric;\n        _outAddr = _addr;\n    }\n\n\n    function getStudentArr() public view returns(address[] memory){\n      return studentArr;\n    }\n\n    function getAdmin() public view returns(address){\n      return admin;\n    }\n\n    function getPositions() public view returns(SRCPosition[] memory){\n      return positions;\n    }\n\n    function getPositionAddress(string memory _posName) public view returns(address){\n      if(positionLookup[_posName] != 0){\n        return address(positions[positionLookup[_posName]-1]);\n      }else{\n        return address(0);\n      }\n    }\n\n    function getPositionLength() public view returns(uint256){\n      return positions.length;\n    }\n\n    function () external payable{\n\n    }\n\n\n}\n",
  "sourcePath": "/home/dan/Documents/ethereum/git/QMB-Blockchain/truffle/SRC/contracts/SRC.sol",
  "compiler": {
    "name": "solc",
    "version": "0.5.0+commit.1d4f565a.Emscripten.clang"
  },
  "schemaVersion": "3.0.1",
  "updatedAt": "2019-04-30T03:00:12.803Z",
  "devdoc": {
    "methods": {}
  },
  "userdoc": {
    "methods": {
      "getStudent(address)": {
        "notice": "GETTERS & SETTERS ///"
      }
    }
  }
}