{
  "contractName": "SRCPosition",
  "abi": [
    {
      "inputs": [
        {
          "name": "_tit",
          "type": "string"
        },
        {
          "name": "_own",
          "type": "address"
        },
        {
          "name": "_admin",
          "type": "address"
        },
        {
          "name": "_sch",
          "type": "uint8"
        }
      ],
      "payable": false,
      "stateMutability": "nonpayable",
      "type": "constructor",
      "signature": "constructor"
    },
    {
      "payable": true,
      "stateMutability": "payable",
      "type": "fallback"
    },
    {
      "constant": true,
      "inputs": [
        {
          "name": "_addr",
          "type": "address"
        }
      ],
      "name": "checkIfHasVoted",
      "outputs": [
        {
          "name": "",
          "type": "bool"
        }
      ],
      "payable": false,
      "stateMutability": "view",
      "type": "function",
      "signature": "0xbf60cb5f"
    },
    {
      "constant": true,
      "inputs": [
        {
          "name": "_sch",
          "type": "uint8"
        }
      ],
      "name": "checkIfCanVote",
      "outputs": [
        {
          "name": "",
          "type": "bool"
        }
      ],
      "payable": false,
      "stateMutability": "view",
      "type": "function",
      "signature": "0x5637543a"
    },
    {
      "constant": true,
      "inputs": [
        {
          "name": "_can",
          "type": "address[]"
        }
      ],
      "name": "checkCandidateArray",
      "outputs": [
        {
          "name": "t",
          "type": "bool"
        }
      ],
      "payable": false,
      "stateMutability": "view",
      "type": "function",
      "signature": "0x0ea70fb8"
    },
    {
      "constant": false,
      "inputs": [
        {
          "name": "_addr",
          "type": "address"
        },
        {
          "name": "_can",
          "type": "address[]"
        }
      ],
      "name": "addVote",
      "outputs": [],
      "payable": false,
      "stateMutability": "nonpayable",
      "type": "function",
      "signature": "0x00ea4d25"
    },
    {
      "constant": false,
      "inputs": [
        {
          "name": "_addr",
          "type": "address"
        }
      ],
      "name": "removeVote",
      "outputs": [],
      "payable": false,
      "stateMutability": "nonpayable",
      "type": "function",
      "signature": "0x3ccc1f53"
    },
    {
      "constant": false,
      "inputs": [
        {
          "name": "_addr",
          "type": "address"
        }
      ],
      "name": "addCandidate",
      "outputs": [],
      "payable": false,
      "stateMutability": "nonpayable",
      "type": "function",
      "signature": "0x3acd75f8"
    },
    {
      "constant": false,
      "inputs": [
        {
          "name": "_addr",
          "type": "address"
        }
      ],
      "name": "removeCandidate",
      "outputs": [],
      "payable": false,
      "stateMutability": "nonpayable",
      "type": "function",
      "signature": "0x6dd091f9"
    },
    {
      "constant": false,
      "inputs": [],
      "name": "kill",
      "outputs": [],
      "payable": false,
      "stateMutability": "nonpayable",
      "type": "function",
      "signature": "0x41c0e1b5"
    },
    {
      "constant": false,
      "inputs": [],
      "name": "toggleActive",
      "outputs": [],
      "payable": false,
      "stateMutability": "nonpayable",
      "type": "function",
      "signature": "0x29c68dc1"
    },
    {
      "constant": false,
      "inputs": [
        {
          "name": "_newHold",
          "type": "address"
        }
      ],
      "name": "setHolder",
      "outputs": [],
      "payable": false,
      "stateMutability": "nonpayable",
      "type": "function",
      "signature": "0xd979f5aa"
    },
    {
      "constant": true,
      "inputs": [],
      "name": "getAllCandidates",
      "outputs": [
        {
          "name": "",
          "type": "address[]"
        }
      ],
      "payable": false,
      "stateMutability": "view",
      "type": "function",
      "signature": "0x2e6997fe"
    },
    {
      "constant": true,
      "inputs": [
        {
          "name": "_vote",
          "type": "address"
        }
      ],
      "name": "getSelectedCandidates",
      "outputs": [
        {
          "name": "",
          "type": "address[]"
        }
      ],
      "payable": false,
      "stateMutability": "view",
      "type": "function",
      "signature": "0x748ce546"
    },
    {
      "constant": true,
      "inputs": [],
      "name": "getTotalVoteCount",
      "outputs": [
        {
          "name": "",
          "type": "uint256"
        }
      ],
      "payable": false,
      "stateMutability": "view",
      "type": "function",
      "signature": "0x288c72e8"
    },
    {
      "constant": true,
      "inputs": [
        {
          "name": "i",
          "type": "uint256"
        }
      ],
      "name": "getVote",
      "outputs": [
        {
          "name": "",
          "type": "address[]"
        }
      ],
      "payable": false,
      "stateMutability": "view",
      "type": "function",
      "signature": "0x5a55c1f0"
    },
    {
      "constant": true,
      "inputs": [],
      "name": "getTitle",
      "outputs": [
        {
          "name": "",
          "type": "string"
        }
      ],
      "payable": false,
      "stateMutability": "view",
      "type": "function",
      "signature": "0xff3c1a8f"
    },
    {
      "constant": true,
      "inputs": [],
      "name": "getSchool",
      "outputs": [
        {
          "name": "",
          "type": "uint8"
        }
      ],
      "payable": false,
      "stateMutability": "view",
      "type": "function",
      "signature": "0xa9e3e7c1"
    },
    {
      "constant": true,
      "inputs": [],
      "name": "getDetails",
      "outputs": [
        {
          "name": "_tit",
          "type": "string"
        },
        {
          "name": "_sch",
          "type": "uint8"
        },
        {
          "name": "_addr",
          "type": "address"
        },
        {
          "name": "_hol",
          "type": "address"
        },
        {
          "name": "_act",
          "type": "bool"
        }
      ],
      "payable": false,
      "stateMutability": "view",
      "type": "function",
      "signature": "0xfbbf93a0"
    }
  ],
  "bytecode": "0x60806040523480156200001157600080fd5b506040516200209738038062002097833981018060405260808110156200003757600080fd5b8101908080516401000000008111156200005057600080fd5b828101905060208101848111156200006757600080fd5b81518560018202830111640100000000821117156200008557600080fd5b50509291906020018051906020019092919080519060200190929190805190602001909291905050508360039080519060200190620000c6929190620001db565b50826000806101000a81548173ffffffffffffffffffffffffffffffffffffffff021916908373ffffffffffffffffffffffffffffffffffffffff16021790555081600160006101000a81548173ffffffffffffffffffffffffffffffffffffffff021916908373ffffffffffffffffffffffffffffffffffffffff16021790555080600460016101000a81548160ff021916908360098111156200016757fe5b02179055506001600460006101000a81548160ff0219169083151502179055506000600260006101000a81548173ffffffffffffffffffffffffffffffffffffffff021916908373ffffffffffffffffffffffffffffffffffffffff1602179055506003600981905550505050506200028a565b828054600181600116156101000203166002900490600052602060002090601f016020900481019282601f106200021e57805160ff19168380011785556200024f565b828001600101855582156200024f579182015b828111156200024e57825182559160200191906001019062000231565b5b5090506200025e919062000262565b5090565b6200028791905b808211156200028357600081600090555060010162000269565b5090565b90565b611dfd806200029a6000396000f3fe6080604052600436106100f0576000357c0100000000000000000000000000000000000000000000000000000000900463ffffffff168062ea4d25146100f25780630ea70fb8146101d7578063288c72e8146102b457806329c68dc1146102df5780632e6997fe146102f65780633acd75f8146103625780633ccc1f53146103b357806341c0e1b5146104045780635637543a1461041b5780635a55c1f0146104715780636dd091f914610501578063748ce54614610552578063a9e3e7c1146105f8578063bf60cb5f14610631578063d979f5aa1461069a578063fbbf93a0146106eb578063ff3c1a8f146107f9575b005b3480156100fe57600080fd5b506101d56004803603604081101561011557600080fd5b81019080803573ffffffffffffffffffffffffffffffffffffffff1690602001909291908035906020019064010000000081111561015257600080fd5b82018360208201111561016457600080fd5b8035906020019184602083028401116401000000008311171561018657600080fd5b919080806020026020016040519081016040528093929190818152602001838360200280828437600081840152601f19601f820116905080830192505050505050509192919290505050610889565b005b3480156101e357600080fd5b5061029a600480360360208110156101fa57600080fd5b810190808035906020019064010000000081111561021757600080fd5b82018360208201111561022957600080fd5b8035906020019184602083028401116401000000008311171561024b57600080fd5b919080806020026020016040519081016040528093929190818152602001838360200280828437600081840152601f19601f820116905080830192505050505050509192919290505050610a6e565b604051808215151515815260200191505060405180910390f35b3480156102c057600080fd5b506102c9610bad565b6040518082815260200191505060405180910390f35b3480156102eb57600080fd5b506102f4610bba565b005b34801561030257600080fd5b5061030b610cc0565b6040518080602001828103825283818151815260200191508051906020019060200280838360005b8381101561034e578082015181840152602081019050610333565b505050509050019250505060405180910390f35b34801561036e57600080fd5b506103b16004803603602081101561038557600080fd5b81019080803573ffffffffffffffffffffffffffffffffffffffff169060200190929190505050610d4e565b005b3480156103bf57600080fd5b50610402600480360360208110156103d657600080fd5b81019080803573ffffffffffffffffffffffffffffffffffffffff169060200190929190505050610f01565b005b34801561041057600080fd5b506104196112c4565b005b34801561042757600080fd5b506104576004803603602081101561043e57600080fd5b81019080803560ff169060200190929190505050611390565b604051808215151515815260200191505060405180910390f35b34801561047d57600080fd5b506104aa6004803603602081101561049457600080fd5b8101908080359060200190929190505050611402565b6040518080602001828103825283818151815260200191508051906020019060200280838360005b838110156104ed5780820151818401526020810190506104d2565b505050509050019250505060405180910390f35b34801561050d57600080fd5b506105506004803603602081101561052457600080fd5b81019080803573ffffffffffffffffffffffffffffffffffffffff1690602001909291905050506114b0565b005b34801561055e57600080fd5b506105a16004803603602081101561057557600080fd5b81019080803573ffffffffffffffffffffffffffffffffffffffff16906020019092919050505061173b565b6040518080602001828103825283818151815260200191508051906020019060200280838360005b838110156105e45780820151818401526020810190506105c9565b505050509050019250505060405180910390f35b34801561060457600080fd5b5061060d611882565b6040518082600981111561061d57fe5b60ff16815260200191505060405180910390f35b34801561063d57600080fd5b506106806004803603602081101561065457600080fd5b81019080803573ffffffffffffffffffffffffffffffffffffffff169060200190929190505050611899565b604051808215151515815260200191505060405180910390f35b3480156106a657600080fd5b506106e9600480360360208110156106bd57600080fd5b81019080803573ffffffffffffffffffffffffffffffffffffffff1690602001909291905050506118f5565b005b3480156106f757600080fd5b50610700611a11565b60405180806020018660ff1660ff1681526020018573ffffffffffffffffffffffffffffffffffffffff1673ffffffffffffffffffffffffffffffffffffffff1681526020018473ffffffffffffffffffffffffffffffffffffffff1673ffffffffffffffffffffffffffffffffffffffff16815260200183151515158152602001828103825287818151815260200191508051906020019080838360005b838110156107ba57808201518184015260208101905061079f565b50505050905090810190601f1680156107e75780820380516001836020036101000a031916815260200191505b50965050505050505060405180910390f35b34801561080557600080fd5b5061080e611b14565b6040518080602001828103825283818151815260200191508051906020019080838360005b8381101561084e578082015181840152602081019050610833565b50505050905090810190601f16801561087b5780820380516001836020036101000a031916815260200191505b509250505060405180910390f35b6000809054906101000a900473ffffffffffffffffffffffffffffffffffffffff1673ffffffffffffffffffffffffffffffffffffffff163373ffffffffffffffffffffffffffffffffffffffff1614806109315750600160009054906101000a900473ffffffffffffffffffffffffffffffffffffffff1673ffffffffffffffffffffffffffffffffffffffff163373ffffffffffffffffffffffffffffffffffffffff16145b151561093c57600080fd5b610944611bb6565b82816000019073ffffffffffffffffffffffffffffffffffffffff16908173ffffffffffffffffffffffffffffffffffffffff16815250508181602001819052506008819080600181540180825580915050906001820390600052602060002090600202016000909192909190915060008201518160000160006101000a81548173ffffffffffffffffffffffffffffffffffffffff021916908373ffffffffffffffffffffffffffffffffffffffff1602179055506020820151816001019080519060200190610a16929190611be6565b505050506000600880549050905080600760008673ffffffffffffffffffffffffffffffffffffffff1673ffffffffffffffffffffffffffffffffffffffff1681526020019081526020016000208190555050505050565b60008060009054906101000a900473ffffffffffffffffffffffffffffffffffffffff1673ffffffffffffffffffffffffffffffffffffffff163373ffffffffffffffffffffffffffffffffffffffff161480610b185750600160009054906101000a900473ffffffffffffffffffffffffffffffffffffffff1673ffffffffffffffffffffffffffffffffffffffff163373ffffffffffffffffffffffffffffffffffffffff16145b1515610b2357600080fd5b6001905060005b8251811015610ba4576000600560008584815181101515610b4757fe5b9060200190602002015173ffffffffffffffffffffffffffffffffffffffff1673ffffffffffffffffffffffffffffffffffffffff168152602001908152602001600020541415610b9757600091505b8080600101915050610b2a565b50809050919050565b6000600880549050905090565b6000809054906101000a900473ffffffffffffffffffffffffffffffffffffffff1673ffffffffffffffffffffffffffffffffffffffff163373ffffffffffffffffffffffffffffffffffffffff161480610c625750600160009054906101000a900473ffffffffffffffffffffffffffffffffffffffff1673ffffffffffffffffffffffffffffffffffffffff163373ffffffffffffffffffffffffffffffffffffffff16145b1515610c6d57600080fd5b600460009054906101000a900460ff1615610ca2576000600460006101000a81548160ff021916908315150217905550610cbe565b6001600460006101000a81548160ff0219169083151502179055505b565b60606006805480602002602001604051908101604052809291908181526020018280548015610d4457602002820191906000526020600020905b8160009054906101000a900473ffffffffffffffffffffffffffffffffffffffff1673ffffffffffffffffffffffffffffffffffffffff1681526020019060010190808311610cfa575b5050505050905090565b6000809054906101000a900473ffffffffffffffffffffffffffffffffffffffff1673ffffffffffffffffffffffffffffffffffffffff163373ffffffffffffffffffffffffffffffffffffffff161480610df65750600160009054906101000a900473ffffffffffffffffffffffffffffffffffffffff1673ffffffffffffffffffffffffffffffffffffffff163373ffffffffffffffffffffffffffffffffffffffff16145b1515610e0157600080fd5b6000600560008373ffffffffffffffffffffffffffffffffffffffff1673ffffffffffffffffffffffffffffffffffffffff16815260200190815260200160002054141515610e4f57600080fd5b60068190806001815401808255809150509060018203906000526020600020016000909192909190916101000a81548173ffffffffffffffffffffffffffffffffffffffff021916908373ffffffffffffffffffffffffffffffffffffffff16021790555050600680549050600560008373ffffffffffffffffffffffffffffffffffffffff1673ffffffffffffffffffffffffffffffffffffffff1681526020019081526020016000208190555050565b6000809054906101000a900473ffffffffffffffffffffffffffffffffffffffff1673ffffffffffffffffffffffffffffffffffffffff163373ffffffffffffffffffffffffffffffffffffffff161480610fa95750600160009054906101000a900473ffffffffffffffffffffffffffffffffffffffff1673ffffffffffffffffffffffffffffffffffffffff163373ffffffffffffffffffffffffffffffffffffffff16145b1515610fb457600080fd5b610fbc611bb6565b6008600160088054905003815481101515610fd357fe5b90600052602060002090600202016040805190810160405290816000820160009054906101000a900473ffffffffffffffffffffffffffffffffffffffff1673ffffffffffffffffffffffffffffffffffffffff1673ffffffffffffffffffffffffffffffffffffffff168152602001600182018054806020026020016040519081016040528092919081815260200182805480156110c757602002820191906000526020600020905b8160009054906101000a900473ffffffffffffffffffffffffffffffffffffffff1673ffffffffffffffffffffffffffffffffffffffff168152602001906001019080831161107d575b50505050508152505090508060086001600760008673ffffffffffffffffffffffffffffffffffffffff1673ffffffffffffffffffffffffffffffffffffffff168152602001908152602001600020540381548110151561112457fe5b906000526020600020906002020160008201518160000160006101000a81548173ffffffffffffffffffffffffffffffffffffffff021916908373ffffffffffffffffffffffffffffffffffffffff1602179055506020820151816001019080519060200190611195929190611be6565b50905050600760008373ffffffffffffffffffffffffffffffffffffffff1673ffffffffffffffffffffffffffffffffffffffff168152602001908152602001600020546007600060086001600880549050038154811015156111f457fe5b906000526020600020906002020160000160009054906101000a900473ffffffffffffffffffffffffffffffffffffffff1673ffffffffffffffffffffffffffffffffffffffff1673ffffffffffffffffffffffffffffffffffffffff168152602001908152602001600020819055506000600760008473ffffffffffffffffffffffffffffffffffffffff1673ffffffffffffffffffffffffffffffffffffffff168152602001908152602001600020819055506001600880549050036008816112bf9190611c70565b505050565b6000809054906101000a900473ffffffffffffffffffffffffffffffffffffffff1673ffffffffffffffffffffffffffffffffffffffff163373ffffffffffffffffffffffffffffffffffffffff16148061136c5750600160009054906101000a900473ffffffffffffffffffffffffffffffffffffffff1673ffffffffffffffffffffffffffffffffffffffff163373ffffffffffffffffffffffffffffffffffffffff16145b151561137757600080fd5b3373ffffffffffffffffffffffffffffffffffffffff16ff5b6000600460019054906101000a900460ff1660098111156113ad57fe5b8260098111156113b957fe5b14806113ea5750600060098111156113cd57fe5b600460019054906101000a900460ff1660098111156113e857fe5b145b156113f857600190506113fd565b600090505b919050565b606060088281548110151561141357fe5b90600052602060002090600202016001018054806020026020016040519081016040528092919081815260200182805480156114a457602002820191906000526020600020905b8160009054906101000a900473ffffffffffffffffffffffffffffffffffffffff1673ffffffffffffffffffffffffffffffffffffffff168152602001906001019080831161145a575b50505050509050919050565b6000809054906101000a900473ffffffffffffffffffffffffffffffffffffffff1673ffffffffffffffffffffffffffffffffffffffff163373ffffffffffffffffffffffffffffffffffffffff1614806115585750600160009054906101000a900473ffffffffffffffffffffffffffffffffffffffff1673ffffffffffffffffffffffffffffffffffffffff163373ffffffffffffffffffffffffffffffffffffffff16145b151561156357600080fd5b6000600560008373ffffffffffffffffffffffffffffffffffffffff1673ffffffffffffffffffffffffffffffffffffffff168152602001908152602001600020541115156115b157600080fd5b6000600560008373ffffffffffffffffffffffffffffffffffffffff1673ffffffffffffffffffffffffffffffffffffffff1681526020019081526020016000205490506000600660016006805490500381548110151561160e57fe5b9060005260206000200160009054906101000a900473ffffffffffffffffffffffffffffffffffffffff1690508060066001840381548110151561164e57fe5b9060005260206000200160006101000a81548173ffffffffffffffffffffffffffffffffffffffff021916908373ffffffffffffffffffffffffffffffffffffffff16021790555081600560008373ffffffffffffffffffffffffffffffffffffffff1673ffffffffffffffffffffffffffffffffffffffff168152602001908152602001600020819055506000600560008573ffffffffffffffffffffffffffffffffffffffff1673ffffffffffffffffffffffffffffffffffffffff168152602001908152602001600020819055506001600680549050036006816117359190611ca2565b50505050565b6060806000600760008573ffffffffffffffffffffffffffffffffffffffff1673ffffffffffffffffffffffffffffffffffffffff16815260200190815260200160002054141561178f578091505061187d565b60086001600760008673ffffffffffffffffffffffffffffffffffffffff1673ffffffffffffffffffffffffffffffffffffffff16815260200190815260200160002054038154811015156117e057fe5b906000526020600020906002020160010180548060200260200160405190810160405280929190818152602001828054801561187157602002820191906000526020600020905b8160009054906101000a900473ffffffffffffffffffffffffffffffffffffffff1673ffffffffffffffffffffffffffffffffffffffff1681526020019060010190808311611827575b50505050509050809150505b919050565b6000600460019054906101000a900460ff16905090565b600080600760008473ffffffffffffffffffffffffffffffffffffffff1673ffffffffffffffffffffffffffffffffffffffff1681526020019081526020016000205411156118eb57600190506118f0565b600090505b919050565b6000809054906101000a900473ffffffffffffffffffffffffffffffffffffffff1673ffffffffffffffffffffffffffffffffffffffff163373ffffffffffffffffffffffffffffffffffffffff16148061199d5750600160009054906101000a900473ffffffffffffffffffffffffffffffffffffffff1673ffffffffffffffffffffffffffffffffffffffff163373ffffffffffffffffffffffffffffffffffffffff16145b15156119a857600080fd5b600460009054906101000a900460ff161515611a0e5780600260006101000a81548173ffffffffffffffffffffffffffffffffffffffff021916908373ffffffffffffffffffffffffffffffffffffffff16021790555060086000611a0d9190611cce565b5b50565b606060008060008060038054600181600116156101000203166002900480601f016020809104026020016040519081016040528092919081815260200182805460018160011615610100020316600290048015611aaf5780601f10611a8457610100808354040283529160200191611aaf565b820191906000526020600020905b815481529060010190602001808311611a9257829003601f168201915b50505050509450600460019054906101000a900460ff166009811115611ad157fe5b9350309250600260009054906101000a900473ffffffffffffffffffffffffffffffffffffffff169150600460009054906101000a900460ff1690509091929394565b606060038054600181600116156101000203166002900480601f016020809104026020016040519081016040528092919081815260200182805460018160011615610100020316600290048015611bac5780601f10611b8157610100808354040283529160200191611bac565b820191906000526020600020905b815481529060010190602001808311611b8f57829003601f168201915b5050505050905090565b6040805190810160405280600073ffffffffffffffffffffffffffffffffffffffff168152602001606081525090565b828054828255906000526020600020908101928215611c5f579160200282015b82811115611c5e5782518260006101000a81548173ffffffffffffffffffffffffffffffffffffffff021916908373ffffffffffffffffffffffffffffffffffffffff16021790555091602001919060010190611c06565b5b509050611c6c9190611cf2565b5090565b815481835581811115611c9d57600202816002028360005260206000209182019101611c9c9190611d35565b5b505050565b815481835581811115611cc957818360005260206000209182019101611cc89190611d8b565b5b505050565b5080546000825560020290600052602060002090810190611cef9190611d35565b50565b611d3291905b80821115611d2e57600081816101000a81549073ffffffffffffffffffffffffffffffffffffffff021916905550600101611cf8565b5090565b90565b611d8891905b80821115611d8457600080820160006101000a81549073ffffffffffffffffffffffffffffffffffffffff0219169055600182016000611d7b9190611db0565b50600201611d3b565b5090565b90565b611dad91905b80821115611da9576000816000905550600101611d91565b5090565b90565b5080546000825590600052602060002090810190611dce9190611d8b565b5056fea165627a7a72305820efe296bfb307a502191667ee1f8ccac5f495e495ab6e4197900783e9764c0ff50029",
  "source": "pragma solidity ^0.5.0;\n\nimport \"./SRCLib.sol\";\n\ncontract SRCPosition{\n\n    using SRCLib for SRCLib.Vote;\n    using SRCLib for SRCLib.SchoolState;\n\n    address owner;\n    address admin;\n\n    address curHolder;\n    string title;\n    bool isActive;\n\n    SRCLib.SchoolState requiredSchool;\n\n    mapping(address => uint256) candidatePos;\n    address[] candidates;\n\n    mapping(address => uint256) votePos;\n    SRCLib.Vote[] castVotes;\n\n    uint256 precision;    //max number of selectable candidates for a student to select\n\n    modifier onlyOwner{\n        require(msg.sender == owner || msg.sender == admin);\n        _;\n    }\n    constructor(string memory _tit, address _own, address _admin, SRCLib.SchoolState _sch) public {\n        title = _tit;\n        owner = _own;\n        admin = _admin;\n        requiredSchool = _sch;\n        isActive = true;\n        curHolder = address(0);\n        precision = 3;\n    }\n\n    /** @dev    Check if voter has cast a vote\n      * @param  _addr  Address of voter\n      */\n    function checkIfHasVoted(address _addr) public view returns (bool){\n         if (votePos[_addr] > 0){\n             return true;\n         }\n         return false;\n    }\n\n    /** @dev    Check voter's school membership to determine if they can vote on position\n      * @param  _sch    Voter's university school membership\n      *\n      */\n    function checkIfCanVote(SRCLib.SchoolState _sch) public view returns (bool){\n        if(_sch == requiredSchool || requiredSchool == SRCLib.SchoolState.NONE){\n            return true;\n        }\n\n        return false;\n    }\n\n\n    /** @dev    Check to ensure that candidate array is valid\n      * @param  _can    List of candidates in ballot\n      *\n      */\n    function checkCandidateArray(address[] memory _can) public view onlyOwner returns(bool t){\n      t = true;\n\n      for(uint256 i; i < _can.length; i++){\n        if(candidatePos[_can[i]] == 0){\n          t = false;\n        }\n      }\n\n      return t;\n    }\n\n    /** @dev    Add a new vote to position and set first priority candidate\n      * @param  _addr   Address of voter\n      * @param  _can    First candidate to add to vote, highest preferencial value\n      *\n      */\n    function addVote(address _addr, address[] memory _can) public onlyOwner{\n\n      //Add new vote to array\n      SRCLib.Vote memory _v;\n      _v.voter = _addr;\n      _v.selectedCandidates = _can;\n\n      castVotes.push(_v);\n\n      uint256 vPos = castVotes.length;\n      votePos[_addr] = vPos;\n    }\n\n\n    /** @dev    Remove vote entirely from array of cast votes\n      * @param  _addr   Address of voter\n      */\n    function removeVote(address _addr) public onlyOwner{\n\n       SRCLib.Vote memory toSwap = castVotes[castVotes.length-1];\n       castVotes[votePos[_addr]-1] = toSwap;\n\n       votePos[castVotes[castVotes.length-1].voter] = votePos[_addr];\n       votePos[_addr] = 0;\n\n       castVotes.length = castVotes.length - 1;\n    }\n\n\n    /** @dev    Add a new potential candidate for voters to select when voting\n      * @param  _addr   Address of candidate\n      */\n    function addCandidate(address _addr) public onlyOwner{\n        require(candidatePos[_addr] == 0);      //Make sure prospective candidate isn't already assigned\n        candidates.push(_addr);\n        candidatePos[_addr] = candidates.length;\n    }\n\n    /** @dev    Remove a potential candidate for voters to select when voting\n      * @param  _addr   Address of candidate\n      */\n    function removeCandidate(address _addr) public onlyOwner{\n        require(candidatePos[_addr] > 0);\n\n        uint256 toRemove = candidatePos[_addr];\n        address toSwap = candidates[candidates.length-1];\n\n        candidates[toRemove-1] = toSwap;\n        candidatePos[toSwap] = toRemove;\n        candidatePos[_addr] = 0;\n        candidates.length = candidates.length-1;\n\n    }\n\n\n    /** @dev Destroy SRC position, return any stored ether to SRC\n      */\n    function kill() public onlyOwner{\n        selfdestruct(msg.sender);\n    }\n\n    /// GETTERS & SETTERS ///\n\n    function toggleActive() public onlyOwner{\n      if(isActive){\n        isActive = false;\n      } else{\n        isActive = true;\n      }\n    }\n\n    function setHolder(address _newHold) public onlyOwner{\n      if(!isActive){\n        curHolder = _newHold;\n        delete castVotes;\n      }\n    }\n\n    function getAllCandidates() public view returns(address[] memory){\n      return candidates;\n    }\n\n    function getSelectedCandidates(address _vote) public view returns (address[] memory){\n        address[] memory _cans;\n        if(votePos[_vote] == 0){return _cans; }\n        _cans = castVotes[votePos[_vote]-1].selectedCandidates;\n        return _cans;\n    }\n\n    function getTotalVoteCount() public view returns(uint256){\n      return castVotes.length;\n    }\n\n    function getVote(uint256 i) public view returns(address[] memory){\n      return castVotes[i].selectedCandidates;\n    }\n\n    function getTitle() public view returns (string memory){\n        return title;\n    }\n\n    function getSchool() public view returns(SRCLib.SchoolState){\n        return requiredSchool;\n    }\n\n    function getDetails() public view returns(string memory _tit, uint8 _sch, address _addr, address _hol, bool _act){\n      _tit = title;\n      _sch = uint8(requiredSchool);\n      _addr = address(this);\n      _hol = curHolder;\n      _act = isActive;\n\n    }\n\n    function () external payable{\n\n    }\n\n}\n",
  "sourcePath": "/home/dan/Documents/ethereum/git/QMB-Blockchain/truffle/SRC/contracts/SRCPosition.sol",
  "compiler": {
    "name": "solc",
    "version": "0.5.0+commit.1d4f565a.Emscripten.clang"
  },
  "schemaVersion": "3.0.1",
  "updatedAt": "2019-04-30T03:00:12.793Z",
  "devdoc": {
    "methods": {
      "addCandidate(address)": {
        "details": "Add a new potential candidate for voters to select when voting",
        "params": {
          "_addr": "Address of candidate"
        }
      },
      "addVote(address,address[])": {
        "details": "Add a new vote to position and set first priority candidate",
        "params": {
          "_addr": "Address of voter",
          "_can": "First candidate to add to vote, highest preferencial value      "
        }
      },
      "checkCandidateArray(address[])": {
        "details": "Check to ensure that candidate array is valid",
        "params": {
          "_can": "List of candidates in ballot      "
        }
      },
      "checkIfCanVote(uint8)": {
        "details": "Check voter's school membership to determine if they can vote on position",
        "params": {
          "_sch": "Voter's university school membership      "
        }
      },
      "checkIfHasVoted(address)": {
        "details": "Check if voter has cast a vote",
        "params": {
          "_addr": "Address of voter"
        }
      },
      "kill()": {
        "details": "Destroy SRC position, return any stored ether to SRC"
      },
      "removeCandidate(address)": {
        "details": "Remove a potential candidate for voters to select when voting",
        "params": {
          "_addr": "Address of candidate"
        }
      },
      "removeVote(address)": {
        "details": "Remove vote entirely from array of cast votes",
        "params": {
          "_addr": "Address of voter"
        }
      }
    }
  },
  "userdoc": {
    "methods": {
      "toggleActive()": {
        "notice": "GETTERS & SETTERS ///"
      }
    }
  }
}